{
  "contractName": "Factory",
  "abi": [
    {
      "inputs": [],
      "stateMutability": "nonpayable",
      "type": "constructor"
    },
    {
      "anonymous": false,
      "inputs": [
        {
          "indexed": false,
          "internalType": "address",
          "name": "request",
          "type": "address"
        },
        {
          "indexed": false,
          "internalType": "address",
          "name": "token",
          "type": "address"
        },
        {
          "indexed": false,
          "internalType": "uint256",
          "name": "index",
          "type": "uint256"
        }
      ],
      "name": "RequestTokenCreated",
      "type": "event"
    },
    {
      "inputs": [
        {
          "internalType": "uint256",
          "name": "",
          "type": "uint256"
        }
      ],
      "name": "requests",
      "outputs": [
        {
          "internalType": "address",
          "name": "",
          "type": "address"
        }
      ],
      "stateMutability": "view",
      "type": "function"
    },
    {
      "inputs": [
        {
          "internalType": "uint256",
          "name": "",
          "type": "uint256"
        }
      ],
      "name": "tokens",
      "outputs": [
        {
          "internalType": "address",
          "name": "",
          "type": "address"
        }
      ],
      "stateMutability": "view",
      "type": "function"
    },
    {
      "inputs": [
        {
          "internalType": "string",
          "name": "name",
          "type": "string"
        },
        {
          "internalType": "string",
          "name": "symbol",
          "type": "string"
        },
        {
          "internalType": "uint8",
          "name": "decimals",
          "type": "uint8"
        }
      ],
      "name": "createToken",
      "outputs": [],
      "stateMutability": "nonpayable",
      "type": "function"
    },
    {
      "inputs": [
        {
          "internalType": "uint256",
          "name": "idx",
          "type": "uint256"
        }
      ],
      "name": "getTokenAddress",
      "outputs": [
        {
          "internalType": "address",
          "name": "token",
          "type": "address"
        }
      ],
      "stateMutability": "view",
      "type": "function"
    },
    {
      "inputs": [
        {
          "internalType": "uint256",
          "name": "idx",
          "type": "uint256"
        }
      ],
      "name": "getRequestAddress",
      "outputs": [
        {
          "internalType": "address",
          "name": "request",
          "type": "address"
        }
      ],
      "stateMutability": "view",
      "type": "function"
    }
  ],
  "bytecode": "0x60806040523480156200001157600080fd5b50600060405162000022906200022e565b6200002d9062000285565b604051809103906000f0801580156200004a573d6000803e3d6000fd5b50905060006040516200005d906200023c565b604051809103906000f0801580156200007a573d6000803e3d6000fd5b5090508173ffffffffffffffffffffffffffffffffffffffff166398cbefbe6000836040518363ffffffff1660e01b8152600401620000bb929190620003fb565b600060405180830381600087803b158015620000d657600080fd5b505af1158015620000eb573d6000803e3d6000fd5b505050508073ffffffffffffffffffffffffffffffffffffffff1663f09a401683336040518363ffffffff1660e01b81526004016200012c92919062000452565b600060405180830381600087803b1580156200014757600080fd5b505af11580156200015c573d6000803e3d6000fd5b505050506000829080600181540180825580915050600190039060005260206000200160009091909190916101000a81548173ffffffffffffffffffffffffffffffffffffffff021916908373ffffffffffffffffffffffffffffffffffffffff1602179055506001819080600181540180825580915050600190039060005260206000200160009091909190916101000a81548173ffffffffffffffffffffffffffffffffffffffff021916908373ffffffffffffffffffffffffffffffffffffffff16021790555050506200047f565b61253d8062000fa183390190565b612dab80620034de83390190565b600082825260208201905092915050565b50565b60006200026d6000836200024a565b91506200027a826200025b565b600082019050919050565b60006040820190508181036000830152620002a0816200025e565b90508181036020830152620002b5816200025e565b9050919050565b7f4c69627261727900000000000000000000000000000000000000000000000000600082015250565b6000620002f46007836200024a565b91506200030182620002bc565b602082019050919050565b7f4c49420000000000000000000000000000000000000000000000000000000000600082015250565b6000620003446003836200024a565b915062000351826200030c565b602082019050919050565b6000819050919050565b600060ff82169050919050565b6000819050919050565b60006200039e6200039862000392846200035c565b62000373565b62000366565b9050919050565b620003b0816200037d565b82525050565b600073ffffffffffffffffffffffffffffffffffffffff82169050919050565b6000620003e382620003b6565b9050919050565b620003f581620003d6565b82525050565b600060808201905081810360008301526200041681620002e5565b905081810360208301526200042b8162000335565b90506200043c6040830185620003a5565b6200044b6060830184620003ea565b9392505050565b6000604082019050620004696000830185620003ea565b620004786020830184620003ea565b9392505050565b610b12806200048f6000396000f3fe608060405234801561001057600080fd5b50600436106100575760003560e01c80634f64b2be1461005c57806367ccdf381461008c57806381d12c58146100bc578063e74543b5146100ec578063e8a0aed31461011c575b600080fd5b610076600480360381019061007191906105f2565b610138565b6040516100839190610660565b60405180910390f35b6100a660048036038101906100a191906105f2565b610177565b6040516100b39190610660565b60405180910390f35b6100d660048036038101906100d191906105f2565b6101be565b6040516100e39190610660565b60405180910390f35b610106600480360381019061010191906105f2565b6101fd565b6040516101139190610660565b60405180910390f35b610136600480360381019061013191906107fa565b610245565b005b6000818154811061014857600080fd5b906000526020600020016000915054906101000a900473ffffffffffffffffffffffffffffffffffffffff1681565b600080828154811061018c5761018b610885565b5b9060005260206000200160009054906101000a900473ffffffffffffffffffffffffffffffffffffffff169050919050565b600181815481106101ce57600080fd5b906000526020600020016000915054906101000a900473ffffffffffffffffffffffffffffffffffffffff1681565b60006001828154811061021357610212610885565b5b9060005260206000200160009054906101000a900473ffffffffffffffffffffffffffffffffffffffff169050919050565b600061028e6000808154811061025e5761025d610885565b5b9060005260206000200160009054906101000a900473ffffffffffffffffffffffffffffffffffffffff166104d3565b905060006102da60016000815481106102aa576102a9610885565b5b9060005260206000200160009054906101000a900473ffffffffffffffffffffffffffffffffffffffff166104d3565b90508173ffffffffffffffffffffffffffffffffffffffff166398cbefbe868686856040518563ffffffff1660e01b815260040161031b949392919061094b565b600060405180830381600087803b15801561033557600080fd5b505af1158015610349573d6000803e3d6000fd5b505050508073ffffffffffffffffffffffffffffffffffffffff1663f09a401683336040518363ffffffff1660e01b815260040161038892919061099e565b600060405180830381600087803b1580156103a257600080fd5b505af11580156103b6573d6000803e3d6000fd5b505050506000829080600181540180825580915050600190039060005260206000200160009091909190916101000a81548173ffffffffffffffffffffffffffffffffffffffff021916908373ffffffffffffffffffffffffffffffffffffffff1602179055506001819080600181540180825580915050600190039060005260206000200160009091909190916101000a81548173ffffffffffffffffffffffffffffffffffffffff021916908373ffffffffffffffffffffffffffffffffffffffff1602179055507f125c0027a77f5041120be250b5a1f27faafa2fb71093fac9917583c30aa3c388818360016000805490506104b591906109f6565b6040516104c493929190610a39565b60405180910390a15050505050565b60006040517f3d602d80600a3d3981f3363d3d373d3d3d363d7300000000000000000000000081528260601b60148201527f5af43d82803e903d91602b57fd5bf3000000000000000000000000000000000060288201526037816000f0915050600073ffffffffffffffffffffffffffffffffffffffff168173ffffffffffffffffffffffffffffffffffffffff1614156105a3576040517f08c379a000000000000000000000000000000000000000000000000000000000815260040161059a90610abc565b60405180910390fd5b919050565b6000604051905090565b600080fd5b600080fd5b6000819050919050565b6105cf816105bc565b81146105da57600080fd5b50565b6000813590506105ec816105c6565b92915050565b600060208284031215610608576106076105b2565b5b6000610616848285016105dd565b91505092915050565b600073ffffffffffffffffffffffffffffffffffffffff82169050919050565b600061064a8261061f565b9050919050565b61065a8161063f565b82525050565b60006020820190506106756000830184610651565b92915050565b600080fd5b600080fd5b6000601f19601f8301169050919050565b7f4e487b7100000000000000000000000000000000000000000000000000000000600052604160045260246000fd5b6106ce82610685565b810181811067ffffffffffffffff821117156106ed576106ec610696565b5b80604052505050565b60006107006105a8565b905061070c82826106c5565b919050565b600067ffffffffffffffff82111561072c5761072b610696565b5b61073582610685565b9050602081019050919050565b82818337600083830152505050565b600061076461075f84610711565b6106f6565b9050828152602081018484840111156107805761077f610680565b5b61078b848285610742565b509392505050565b600082601f8301126107a8576107a761067b565b5b81356107b8848260208601610751565b91505092915050565b600060ff82169050919050565b6107d7816107c1565b81146107e257600080fd5b50565b6000813590506107f4816107ce565b92915050565b600080600060608486031215610813576108126105b2565b5b600084013567ffffffffffffffff811115610831576108306105b7565b5b61083d86828701610793565b935050602084013567ffffffffffffffff81111561085e5761085d6105b7565b5b61086a86828701610793565b925050604061087b868287016107e5565b9150509250925092565b7f4e487b7100000000000000000000000000000000000000000000000000000000600052603260045260246000fd5b600081519050919050565b600082825260208201905092915050565b60005b838110156108ee5780820151818401526020810190506108d3565b838111156108fd576000848401525b50505050565b600061090e826108b4565b61091881856108bf565b93506109288185602086016108d0565b61093181610685565b840191505092915050565b610945816107c1565b82525050565b600060808201905081810360008301526109658187610903565b905081810360208301526109798186610903565b9050610988604083018561093c565b6109956060830184610651565b95945050505050565b60006040820190506109b36000830185610651565b6109c06020830184610651565b9392505050565b7f4e487b7100000000000000000000000000000000000000000000000000000000600052601160045260246000fd5b6000610a01826105bc565b9150610a0c836105bc565b925082821015610a1f57610a1e6109c7565b5b828203905092915050565b610a33816105bc565b82525050565b6000606082019050610a4e6000830186610651565b610a5b6020830185610651565b610a686040830184610a2a565b949350505050565b7f455243313136373a20637265617465206661696c656400000000000000000000600082015250565b6000610aa66016836108bf565b9150610ab182610a70565b602082019050919050565b60006020820190508181036000830152610ad581610a99565b905091905056fea2646970667358221220b9396c05285bc56dea2a4b2557e8e220e7db58051277087cf749e1270319a77d64736f6c6343000809003360806040523480156200001157600080fd5b506040516200253d3803806200253d8339818101604052810190620000379190620002c2565b818181600390805190602001906200005192919062000075565b5080600490805190602001906200006a92919062000075565b5050505050620003ac565b828054620000839062000376565b90600052602060002090601f016020900481019282620000a75760008555620000f3565b82601f10620000c257805160ff1916838001178555620000f3565b82800160010185558215620000f3579182015b82811115620000f2578251825591602001919060010190620000d5565b5b50905062000102919062000106565b5090565b5b808211156200012157600081600090555060010162000107565b5090565b6000604051905090565b600080fd5b600080fd5b600080fd5b600080fd5b6000601f19601f8301169050919050565b7f4e487b7100000000000000000000000000000000000000000000000000000000600052604160045260246000fd5b6200018e8262000143565b810181811067ffffffffffffffff82111715620001b057620001af62000154565b5b80604052505050565b6000620001c562000125565b9050620001d3828262000183565b919050565b600067ffffffffffffffff821115620001f657620001f562000154565b5b620002018262000143565b9050602081019050919050565b60005b838110156200022e57808201518184015260208101905062000211565b838111156200023e576000848401525b50505050565b60006200025b6200025584620001d8565b620001b9565b9050828152602081018484840111156200027a57620002796200013e565b5b620002878482856200020e565b509392505050565b600082601f830112620002a757620002a662000139565b5b8151620002b984826020860162000244565b91505092915050565b60008060408385031215620002dc57620002db6200012f565b5b600083015167ffffffffffffffff811115620002fd57620002fc62000134565b5b6200030b858286016200028f565b925050602083015167ffffffffffffffff8111156200032f576200032e62000134565b5b6200033d858286016200028f565b9150509250929050565b7f4e487b7100000000000000000000000000000000000000000000000000000000600052602260045260246000fd5b600060028204905060018216806200038f57607f821691505b60208210811415620003a657620003a562000347565b5b50919050565b61218180620003bc6000396000f3fe608060405234801561001057600080fd5b50600436106100f55760003560e01c806370a0823111610097578063a457c2d711610066578063a457c2d714610286578063a9059cbb146102b6578063ae0b61ba146102e6578063dd62ed3e14610302576100f5565b806370a082311461020057806395d89b411461023057806398cbefbe1461024e5780639dc29fac1461026a576100f5565b806323b872dd116100d357806323b872dd14610166578063313ce5671461019657806339509351146101b457806340c10f19146101e4576100f5565b806306fdde03146100fa578063095ea7b31461011857806318160ddd14610148575b600080fd5b610102610332565b60405161010f9190611315565b60405180910390f35b610132600480360381019061012d91906113df565b6103c4565b60405161013f919061143a565b60405180910390f35b6101506103e7565b60405161015d9190611464565b60405180910390f35b610180600480360381019061017b919061147f565b6103f1565b60405161018d919061143a565b60405180910390f35b61019e610420565b6040516101ab91906114ee565b60405180910390f35b6101ce60048036038101906101c991906113df565b610437565b6040516101db919061143a565b60405180910390f35b6101fe60048036038101906101f991906113df565b61046e565b005b61021a60048036038101906102159190611509565b61050c565b6040516102279190611464565b60405180910390f35b610238610554565b6040516102459190611315565b60405180910390f35b61026860048036038101906102639190611697565b6105e6565b005b610284600480360381019061027f91906113df565b610707565b005b6102a0600480360381019061029b91906113df565b6107a5565b6040516102ad919061143a565b60405180910390f35b6102d060048036038101906102cb91906113df565b61081c565b6040516102dd919061143a565b60405180910390f35b61030060048036038101906102fb91906118c1565b61083f565b005b61031c60048036038101906103179190611939565b610931565b6040516103299190611464565b60405180910390f35b606060058054610341906119a8565b80601f016020809104026020016040519081016040528092919081815260200182805461036d906119a8565b80156103ba5780601f1061038f576101008083540402835291602001916103ba565b820191906000526020600020905b81548152906001019060200180831161039d57829003601f168201915b5050505050905090565b6000806103cf6109b8565b90506103dc8185856109c0565b600191505092915050565b6000600254905090565b6000806103fc6109b8565b9050610409858285610b8b565b610414858585610c17565b60019150509392505050565b6000600760009054906101000a900460ff16905090565b6000806104426109b8565b90506104638185856104548589610931565b61045e9190611a09565b6109c0565b600191505092915050565b600760019054906101000a900473ffffffffffffffffffffffffffffffffffffffff1673ffffffffffffffffffffffffffffffffffffffff163373ffffffffffffffffffffffffffffffffffffffff16146104fe576040517f08c379a00000000000000000000000000000000000000000000000000000000081526004016104f590611aab565b60405180910390fd5b6105088282610e98565b5050565b60008060008373ffffffffffffffffffffffffffffffffffffffff1673ffffffffffffffffffffffffffffffffffffffff168152602001908152602001600020549050919050565b606060068054610563906119a8565b80601f016020809104026020016040519081016040528092919081815260200182805461058f906119a8565b80156105dc5780601f106105b1576101008083540402835291602001916105dc565b820191906000526020600020905b8154815290600101906020018083116105bf57829003601f168201915b5050505050905090565b600073ffffffffffffffffffffffffffffffffffffffff16600760019054906101000a900473ffffffffffffffffffffffffffffffffffffffff1673ffffffffffffffffffffffffffffffffffffffff1614610677576040517f08c379a000000000000000000000000000000000000000000000000000000000815260040161066e90611b17565b60405180910390fd5b836005908051906020019061068d9291906111d9565b5082600690805190602001906106a49291906111d9565b5081600760006101000a81548160ff021916908360ff16021790555080600760016101000a81548173ffffffffffffffffffffffffffffffffffffffff021916908373ffffffffffffffffffffffffffffffffffffffff16021790555050505050565b600760019054906101000a900473ffffffffffffffffffffffffffffffffffffffff1673ffffffffffffffffffffffffffffffffffffffff163373ffffffffffffffffffffffffffffffffffffffff1614610797576040517f08c379a000000000000000000000000000000000000000000000000000000000815260040161078e90611aab565b60405180910390fd5b6107a18282610ff8565b5050565b6000806107b06109b8565b905060006107be8286610931565b905083811015610803576040517f08c379a00000000000000000000000000000000000000000000000000000000081526004016107fa90611ba9565b60405180910390fd5b61081082868684036109c0565b60019250505092915050565b6000806108276109b8565b9050610834818585610c17565b600191505092915050565b600760019054906101000a900473ffffffffffffffffffffffffffffffffffffffff1673ffffffffffffffffffffffffffffffffffffffff163373ffffffffffffffffffffffffffffffffffffffff16146108cf576040517f08c379a00000000000000000000000000000000000000000000000000000000081526004016108c690611aab565b60405180910390fd5b60005b825181101561092c576109198382815181106108f1576108f0611bc9565b5b602002602001015183838151811061090c5761090b611bc9565b5b6020026020010151610e98565b808061092490611bf8565b9150506108d2565b505050565b6000600160008473ffffffffffffffffffffffffffffffffffffffff1673ffffffffffffffffffffffffffffffffffffffff16815260200190815260200160002060008373ffffffffffffffffffffffffffffffffffffffff1673ffffffffffffffffffffffffffffffffffffffff16815260200190815260200160002054905092915050565b600033905090565b600073ffffffffffffffffffffffffffffffffffffffff168373ffffffffffffffffffffffffffffffffffffffff161415610a30576040517f08c379a0000000000000000000000000000000000000000000000000000000008152600401610a2790611cb3565b60405180910390fd5b600073ffffffffffffffffffffffffffffffffffffffff168273ffffffffffffffffffffffffffffffffffffffff161415610aa0576040517f08c379a0000000000000000000000000000000000000000000000000000000008152600401610a9790611d45565b60405180910390fd5b80600160008573ffffffffffffffffffffffffffffffffffffffff1673ffffffffffffffffffffffffffffffffffffffff16815260200190815260200160002060008473ffffffffffffffffffffffffffffffffffffffff1673ffffffffffffffffffffffffffffffffffffffff168152602001908152602001600020819055508173ffffffffffffffffffffffffffffffffffffffff168373ffffffffffffffffffffffffffffffffffffffff167f8c5be1e5ebec7d5bd14f71427d1e84f3dd0314c0f7b2291e5b200ac8c7c3b92583604051610b7e9190611464565b60405180910390a3505050565b6000610b978484610931565b90507fffffffffffffffffffffffffffffffffffffffffffffffffffffffffffffffff8114610c115781811015610c03576040517f08c379a0000000000000000000000000000000000000000000000000000000008152600401610bfa90611db1565b60405180910390fd5b610c1084848484036109c0565b5b50505050565b600073ffffffffffffffffffffffffffffffffffffffff168373ffffffffffffffffffffffffffffffffffffffff161415610c87576040517f08c379a0000000000000000000000000000000000000000000000000000000008152600401610c7e90611e43565b60405180910390fd5b600073ffffffffffffffffffffffffffffffffffffffff168273ffffffffffffffffffffffffffffffffffffffff161415610cf7576040517f08c379a0000000000000000000000000000000000000000000000000000000008152600401610cee90611ed5565b60405180910390fd5b610d028383836111cf565b60008060008573ffffffffffffffffffffffffffffffffffffffff1673ffffffffffffffffffffffffffffffffffffffff16815260200190815260200160002054905081811015610d88576040517f08c379a0000000000000000000000000000000000000000000000000000000008152600401610d7f90611f67565b60405180910390fd5b8181036000808673ffffffffffffffffffffffffffffffffffffffff1673ffffffffffffffffffffffffffffffffffffffff16815260200190815260200160002081905550816000808573ffffffffffffffffffffffffffffffffffffffff1673ffffffffffffffffffffffffffffffffffffffff1681526020019081526020016000206000828254610e1b9190611a09565b925050819055508273ffffffffffffffffffffffffffffffffffffffff168473ffffffffffffffffffffffffffffffffffffffff167fddf252ad1be2c89b69c2b068fc378daa952ba7f163c4a11628f55a4df523b3ef84604051610e7f9190611464565b60405180910390a3610e928484846111d4565b50505050565b600073ffffffffffffffffffffffffffffffffffffffff168273ffffffffffffffffffffffffffffffffffffffff161415610f08576040517f08c379a0000000000000000000000000000000000000000000000000000000008152600401610eff90611fd3565b60405180910390fd5b610f14600083836111cf565b8060026000828254610f269190611a09565b92505081905550806000808473ffffffffffffffffffffffffffffffffffffffff1673ffffffffffffffffffffffffffffffffffffffff1681526020019081526020016000206000828254610f7b9190611a09565b925050819055508173ffffffffffffffffffffffffffffffffffffffff16600073ffffffffffffffffffffffffffffffffffffffff167fddf252ad1be2c89b69c2b068fc378daa952ba7f163c4a11628f55a4df523b3ef83604051610fe09190611464565b60405180910390a3610ff4600083836111d4565b5050565b600073ffffffffffffffffffffffffffffffffffffffff168273ffffffffffffffffffffffffffffffffffffffff161415611068576040517f08c379a000000000000000000000000000000000000000000000000000000000815260040161105f90612065565b60405180910390fd5b611074826000836111cf565b60008060008473ffffffffffffffffffffffffffffffffffffffff1673ffffffffffffffffffffffffffffffffffffffff168152602001908152602001600020549050818110156110fa576040517f08c379a00000000000000000000000000000000000000000000000000000000081526004016110f1906120f7565b60405180910390fd5b8181036000808573ffffffffffffffffffffffffffffffffffffffff1673ffffffffffffffffffffffffffffffffffffffff1681526020019081526020016000208190555081600260008282546111519190612117565b92505081905550600073ffffffffffffffffffffffffffffffffffffffff168373ffffffffffffffffffffffffffffffffffffffff167fddf252ad1be2c89b69c2b068fc378daa952ba7f163c4a11628f55a4df523b3ef846040516111b69190611464565b60405180910390a36111ca836000846111d4565b505050565b505050565b505050565b8280546111e5906119a8565b90600052602060002090601f016020900481019282611207576000855561124e565b82601f1061122057805160ff191683800117855561124e565b8280016001018555821561124e579182015b8281111561124d578251825591602001919060010190611232565b5b50905061125b919061125f565b5090565b5b80821115611278576000816000905550600101611260565b5090565b600081519050919050565b600082825260208201905092915050565b60005b838110156112b657808201518184015260208101905061129b565b838111156112c5576000848401525b50505050565b6000601f19601f8301169050919050565b60006112e78261127c565b6112f18185611287565b9350611301818560208601611298565b61130a816112cb565b840191505092915050565b6000602082019050818103600083015261132f81846112dc565b905092915050565b6000604051905090565b600080fd5b600080fd5b600073ffffffffffffffffffffffffffffffffffffffff82169050919050565b60006113768261134b565b9050919050565b6113868161136b565b811461139157600080fd5b50565b6000813590506113a38161137d565b92915050565b6000819050919050565b6113bc816113a9565b81146113c757600080fd5b50565b6000813590506113d9816113b3565b92915050565b600080604083850312156113f6576113f5611341565b5b600061140485828601611394565b9250506020611415858286016113ca565b9150509250929050565b60008115159050919050565b6114348161141f565b82525050565b600060208201905061144f600083018461142b565b92915050565b61145e816113a9565b82525050565b60006020820190506114796000830184611455565b92915050565b60008060006060848603121561149857611497611341565b5b60006114a686828701611394565b93505060206114b786828701611394565b92505060406114c8868287016113ca565b9150509250925092565b600060ff82169050919050565b6114e8816114d2565b82525050565b600060208201905061150360008301846114df565b92915050565b60006020828403121561151f5761151e611341565b5b600061152d84828501611394565b91505092915050565b600080fd5b600080fd5b7f4e487b7100000000000000000000000000000000000000000000000000000000600052604160045260246000fd5b611578826112cb565b810181811067ffffffffffffffff8211171561159757611596611540565b5b80604052505050565b60006115aa611337565b90506115b6828261156f565b919050565b600067ffffffffffffffff8211156115d6576115d5611540565b5b6115df826112cb565b9050602081019050919050565b82818337600083830152505050565b600061160e611609846115bb565b6115a0565b90508281526020810184848401111561162a5761162961153b565b5b6116358482856115ec565b509392505050565b600082601f83011261165257611651611536565b5b81356116628482602086016115fb565b91505092915050565b611674816114d2565b811461167f57600080fd5b50565b6000813590506116918161166b565b92915050565b600080600080608085870312156116b1576116b0611341565b5b600085013567ffffffffffffffff8111156116cf576116ce611346565b5b6116db8782880161163d565b945050602085013567ffffffffffffffff8111156116fc576116fb611346565b5b6117088782880161163d565b935050604061171987828801611682565b925050606061172a87828801611394565b91505092959194509250565b600067ffffffffffffffff82111561175157611750611540565b5b602082029050602081019050919050565b600080fd5b600061177a61177584611736565b6115a0565b9050808382526020820190506020840283018581111561179d5761179c611762565b5b835b818110156117c657806117b28882611394565b84526020840193505060208101905061179f565b5050509392505050565b600082601f8301126117e5576117e4611536565b5b81356117f5848260208601611767565b91505092915050565b600067ffffffffffffffff82111561181957611818611540565b5b602082029050602081019050919050565b600061183d611838846117fe565b6115a0565b905080838252602082019050602084028301858111156118605761185f611762565b5b835b81811015611889578061187588826113ca565b845260208401935050602081019050611862565b5050509392505050565b600082601f8301126118a8576118a7611536565b5b81356118b884826020860161182a565b91505092915050565b600080604083850312156118d8576118d7611341565b5b600083013567ffffffffffffffff8111156118f6576118f5611346565b5b611902858286016117d0565b925050602083013567ffffffffffffffff81111561192357611922611346565b5b61192f85828601611893565b9150509250929050565b600080604083850312156119505761194f611341565b5b600061195e85828601611394565b925050602061196f85828601611394565b9150509250929050565b7f4e487b7100000000000000000000000000000000000000000000000000000000600052602260045260246000fd5b600060028204905060018216806119c057607f821691505b602082108114156119d4576119d3611979565b5b50919050565b7f4e487b7100000000000000000000000000000000000000000000000000000000600052601160045260246000fd5b6000611a14826113a9565b9150611a1f836113a9565b9250827fffffffffffffffffffffffffffffffffffffffffffffffffffffffffffffffff03821115611a5457611a536119da565b5b828201905092915050565b7f546f6b656e3a206e6f207065726d697373696f6e000000000000000000000000600082015250565b6000611a95601483611287565b9150611aa082611a5f565b602082019050919050565b60006020820190508181036000830152611ac481611a88565b9050919050565b7f546f6b656e3a20616c726561647920696e697469616c697a6564000000000000600082015250565b6000611b01601a83611287565b9150611b0c82611acb565b602082019050919050565b60006020820190508181036000830152611b3081611af4565b9050919050565b7f45524332303a2064656372656173656420616c6c6f77616e63652062656c6f7760008201527f207a65726f000000000000000000000000000000000000000000000000000000602082015250565b6000611b93602583611287565b9150611b9e82611b37565b604082019050919050565b60006020820190508181036000830152611bc281611b86565b9050919050565b7f4e487b7100000000000000000000000000000000000000000000000000000000600052603260045260246000fd5b6000611c03826113a9565b91507fffffffffffffffffffffffffffffffffffffffffffffffffffffffffffffffff821415611c3657611c356119da565b5b600182019050919050565b7f45524332303a20617070726f76652066726f6d20746865207a65726f2061646460008201527f7265737300000000000000000000000000000000000000000000000000000000602082015250565b6000611c9d602483611287565b9150611ca882611c41565b604082019050919050565b60006020820190508181036000830152611ccc81611c90565b9050919050565b7f45524332303a20617070726f766520746f20746865207a65726f20616464726560008201527f7373000000000000000000000000000000000000000000000000000000000000602082015250565b6000611d2f602283611287565b9150611d3a82611cd3565b604082019050919050565b60006020820190508181036000830152611d5e81611d22565b9050919050565b7f45524332303a20696e73756666696369656e7420616c6c6f77616e6365000000600082015250565b6000611d9b601d83611287565b9150611da682611d65565b602082019050919050565b60006020820190508181036000830152611dca81611d8e565b9050919050565b7f45524332303a207472616e736665722066726f6d20746865207a65726f20616460008201527f6472657373000000000000000000000000000000000000000000000000000000602082015250565b6000611e2d602583611287565b9150611e3882611dd1565b604082019050919050565b60006020820190508181036000830152611e5c81611e20565b9050919050565b7f45524332303a207472616e7366657220746f20746865207a65726f206164647260008201527f6573730000000000000000000000000000000000000000000000000000000000602082015250565b6000611ebf602383611287565b9150611eca82611e63565b604082019050919050565b60006020820190508181036000830152611eee81611eb2565b9050919050565b7f45524332303a207472616e7366657220616d6f756e742065786365656473206260008201527f616c616e63650000000000000000000000000000000000000000000000000000602082015250565b6000611f51602683611287565b9150611f5c82611ef5565b604082019050919050565b60006020820190508181036000830152611f8081611f44565b9050919050565b7f45524332303a206d696e7420746f20746865207a65726f206164647265737300600082015250565b6000611fbd601f83611287565b9150611fc882611f87565b602082019050919050565b60006020820190508181036000830152611fec81611fb0565b9050919050565b7f45524332303a206275726e2066726f6d20746865207a65726f2061646472657360008201527f7300000000000000000000000000000000000000000000000000000000000000602082015250565b600061204f602183611287565b915061205a82611ff3565b604082019050919050565b6000602082019050818103600083015261207e81612042565b9050919050565b7f45524332303a206275726e20616d6f756e7420657863656564732062616c616e60008201527f6365000000000000000000000000000000000000000000000000000000000000602082015250565b60006120e1602283611287565b91506120ec82612085565b604082019050919050565b60006020820190508181036000830152612110816120d4565b9050919050565b6000612122826113a9565b915061212d836113a9565b9250828210156121405761213f6119da565b5b82820390509291505056fea264697066735822122009720ce9640296eba4a14e4e71baffd1a49e2b55c8992de1257f7aa9b4330b7564736f6c63430008090033608060405234801561001057600080fd5b50612d8b806100206000396000f3fe608060405234801561001057600080fd5b50600436106101005760003560e01c80635553afb611610097578063ed2e5a9711610066578063ed2e5a9714610273578063f09a4016146102a4578063fc0c546a146102c0578063fddc3d19146102de57610100565b80635553afb6146102015780637233f6f91461021d578063ae2799c114610239578063c6b052661461025557610100565b80633463aa9b116100d35780633463aa9b1461017757806341f654f7146101a957806346f3bec0146101c957806349733d04146101e557610100565b80630926c69c146101055780630d219c4c146101215780632f8d75e31461013f578063340722ae1461015b575b600080fd5b61011f600480360381019061011a9190611dce565b6102fc565b005b610129610679565b6040516101369190611e26565b60405180910390f35b61015960048036038101906101549190611e41565b61067f565b005b61017560048036038101906101709190611e41565b6109b5565b005b610191600480360381019061018c9190611e41565b610a93565b6040516101a093929190612127565b60405180910390f35b6101b1610e33565b6040516101c093929190612127565b60405180910390f35b6101e360048036038101906101de91906121c7565b610e4e565b005b6101ff60048036038101906101fa9190611e41565b6111cf565b005b61021b60048036038101906102169190611e41565b611476565b005b6102376004803603810190610232919061226a565b6116e8565b005b610253600480360381019061024e919061226a565b611700565b005b61025d611718565b60405161026a91906122d9565b60405180910390f35b61028d60048036038101906102889190611e41565b61173e565b60405161029b929190612393565b60405180910390f35b6102be60048036038101906102b991906123ef565b6118e1565b005b6102c8611a00565b6040516102d591906122d9565b60405180910390f35b6102e6611a26565b6040516102f3919061242f565b60405180910390f35b600460009054906101000a900473ffffffffffffffffffffffffffffffffffffffff1673ffffffffffffffffffffffffffffffffffffffff163373ffffffffffffffffffffffffffffffffffffffff161461038c576040517f08c379a00000000000000000000000000000000000000000000000000000000081526004016103839061249d565b60405180910390fd5b60008151905060008167ffffffffffffffff8111156103ae576103ad611c55565b5b6040519080825280602002602001820160405280156103dc5781602001602082028036833780820191505090505b50905060008267ffffffffffffffff8111156103fb576103fa611c55565b5b6040519080825280602002602001820160405280156104295781602001602082028036833780820191505090505b50905060005b838110156105aa576000600186838151811061044e5761044d6124bd565b5b602002602001015181548110610467576104666124bd565b5b906000526020600020906002020190508060010160149054906101000a900460ff161580156104a457508060010160159054906101000a900460ff165b6104e3576040517f08c379a00000000000000000000000000000000000000000000000000000000081526004016104da9061255e565b60405180910390fd5b8060010160009054906101000a900473ffffffffffffffffffffffffffffffffffffffff1684838151811061051b5761051a6124bd565b5b602002602001019073ffffffffffffffffffffffffffffffffffffffff16908173ffffffffffffffffffffffffffffffffffffffff1681525050806000015483838151811061056d5761056c6124bd565b5b60200260200101818152505060008160010160156101000a81548160ff0219169083151502179055505080806105a2906125ad565b91505061042f565b50600360009054906101000a900473ffffffffffffffffffffffffffffffffffffffff1673ffffffffffffffffffffffffffffffffffffffff1663ae0b61ba83836040518363ffffffff1660e01b8152600401610608929190612754565b600060405180830381600087803b15801561062257600080fd5b505af1158015610636573d6000803e3d6000fd5b505050507febb1edccc7b5ff3a6bc7166b268d8dfc0fb33e4e54e99f4d315765731674e27a848360405161066b92919061278b565b60405180910390a150505050565b60025481565b600081116106c2576040517f08c379a00000000000000000000000000000000000000000000000000000000081526004016106b99061280e565b60405180910390fd5b60008060003373ffffffffffffffffffffffffffffffffffffffff1673ffffffffffffffffffffffffffffffffffffffff168152602001908152602001600020905060008060003373ffffffffffffffffffffffffffffffffffffffff1673ffffffffffffffffffffffffffffffffffffffff168152602001908152602001600020805461074f9061285d565b90501415610792576040517f08c379a0000000000000000000000000000000000000000000000000000000008152600401610789906128db565b60405180910390fd5b600360009054906101000a900473ffffffffffffffffffffffffffffffffffffffff1673ffffffffffffffffffffffffffffffffffffffff16639dc29fac33846040518363ffffffff1660e01b81526004016107ef9291906128fb565b600060405180830381600087803b15801561080957600080fd5b505af115801561081d573d6000803e3d6000fd5b50505050610829611b46565b8281600001818152505033816020019073ffffffffffffffffffffffffffffffffffffffff16908173ffffffffffffffffffffffffffffffffffffffff16815250506000816040019015159081151581525050600181606001901515908115158152505060018190806001815401808255809150506001900390600052602060002090600202016000909190919091506000820151816000015560208201518160010160006101000a81548173ffffffffffffffffffffffffffffffffffffffff021916908373ffffffffffffffffffffffffffffffffffffffff16021790555060408201518160010160146101000a81548160ff02191690831515021790555060608201518160010160156101000a81548160ff02191690831515021790555050503373ffffffffffffffffffffffffffffffffffffffff16600180805490506109749190612924565b7fa0ff3e22d4a07b98719ec3f07c82546d61e149eda311d7c74f50042ce504c866848660006040516109a8939291906129fc565b60405180910390a3505050565b600460009054906101000a900473ffffffffffffffffffffffffffffffffffffffff1673ffffffffffffffffffffffffffffffffffffffff163373ffffffffffffffffffffffffffffffffffffffff1614610a45576040517f08c379a0000000000000000000000000000000000000000000000000000000008152600401610a3c9061249d565b60405180910390fd5b8060025410610a89576040517f08c379a0000000000000000000000000000000000000000000000000000000008152600401610a8090612a86565b60405180910390fd5b8060028190555050565b6000606080600460009054906101000a900473ffffffffffffffffffffffffffffffffffffffff1673ffffffffffffffffffffffffffffffffffffffff163373ffffffffffffffffffffffffffffffffffffffff1614610b28576040517f08c379a0000000000000000000000000000000000000000000000000000000008152600401610b1f9061249d565b60405180910390fd5b6000600180549050905060008582610b409190612924565b905060008111610b85576040517f08c379a0000000000000000000000000000000000000000000000000000000008152600401610b7c90612af2565b60405180910390fd5b60008167ffffffffffffffff811115610ba157610ba0611c55565b5b604051908082528060200260200182016040528015610bd457816020015b6060815260200190600190039081610bbf5790505b50905060008267ffffffffffffffff811115610bf357610bf2611c55565b5b604051908082528060200260200182016040528015610c2c57816020015b610c19611b46565b815260200190600190039081610c115790505b50905060005b83811015610e1e576000803373ffffffffffffffffffffffffffffffffffffffff1673ffffffffffffffffffffffffffffffffffffffff1681526020019081526020016000208054610c839061285d565b80601f0160208091040260200160405190810160405280929190818152602001828054610caf9061285d565b8015610cfc5780601f10610cd157610100808354040283529160200191610cfc565b820191906000526020600020905b815481529060010190602001808311610cdf57829003601f168201915b5050505050838281518110610d1457610d136124bd565b5b602002602001018190525060018982610d2d9190612b12565b81548110610d3e57610d3d6124bd565b5b9060005260206000209060020201604051806080016040529081600082015481526020016001820160009054906101000a900473ffffffffffffffffffffffffffffffffffffffff1673ffffffffffffffffffffffffffffffffffffffff1673ffffffffffffffffffffffffffffffffffffffff1681526020016001820160149054906101000a900460ff161515151581526020016001820160159054906101000a900460ff161515151581525050828281518110610e0057610dff6124bd565b5b60200260200101819052508080610e16906125ad565b915050610c32565b50878282965096509650505050509193909250565b6000606080610e43600254610a93565b925092509250909192565b600460009054906101000a900473ffffffffffffffffffffffffffffffffffffffff1673ffffffffffffffffffffffffffffffffffffffff163373ffffffffffffffffffffffffffffffffffffffff1614610ede576040517f08c379a0000000000000000000000000000000000000000000000000000000008152600401610ed59061249d565b60405180910390fd5b600082829050905060008167ffffffffffffffff811115610f0257610f01611c55565b5b604051908082528060200260200182016040528015610f305781602001602082028036833780820191505090505b50905060008267ffffffffffffffff811115610f4f57610f4e611c55565b5b604051908082528060200260200182016040528015610f7d5781602001602082028036833780820191505090505b50905060005b838110156110fd5760006001878784818110610fa257610fa16124bd565b5b9050602002013581548110610fba57610fb96124bd565b5b906000526020600020906002020190508060010160149054906101000a900460ff168015610ff757508060010160159054906101000a900460ff16155b611036576040517f08c379a000000000000000000000000000000000000000000000000000000000815260040161102d9061255e565b60405180910390fd5b8060010160009054906101000a900473ffffffffffffffffffffffffffffffffffffffff1684838151811061106e5761106d6124bd565b5b602002602001019073ffffffffffffffffffffffffffffffffffffffff16908173ffffffffffffffffffffffffffffffffffffffff168152505080600001548383815181106110c0576110bf6124bd565b5b60200260200101818152505060018160010160156101000a81548160ff0219169083151502179055505080806110f5906125ad565b915050610f83565b50600360009054906101000a900473ffffffffffffffffffffffffffffffffffffffff1673ffffffffffffffffffffffffffffffffffffffff1663ae0b61ba83836040518363ffffffff1660e01b815260040161115b929190612754565b600060405180830381600087803b15801561117557600080fd5b505af1158015611189573d6000803e3d6000fd5b505050507fa2c32d3001838e812f0c1466d9074aa338049b8f602dd3015254c4d2696454ff8585846040516111c093929190612bd8565b60405180910390a15050505050565b60008111611212576040517f08c379a00000000000000000000000000000000000000000000000000000000081526004016112099061280e565b60405180910390fd5b60008060003373ffffffffffffffffffffffffffffffffffffffff1673ffffffffffffffffffffffffffffffffffffffff168152602001908152602001600020905060008060003373ffffffffffffffffffffffffffffffffffffffff1673ffffffffffffffffffffffffffffffffffffffff168152602001908152602001600020805461129f9061285d565b905014156112e2576040517f08c379a00000000000000000000000000000000000000000000000000000000081526004016112d9906128db565b60405180910390fd5b6112ea611b46565b8281600001818152505033816020019073ffffffffffffffffffffffffffffffffffffffff16908173ffffffffffffffffffffffffffffffffffffffff16815250506001816040019015159081151581525050600081606001901515908115158152505060018190806001815401808255809150506001900390600052602060002090600202016000909190919091506000820151816000015560208201518160010160006101000a81548173ffffffffffffffffffffffffffffffffffffffff021916908373ffffffffffffffffffffffffffffffffffffffff16021790555060408201518160010160146101000a81548160ff02191690831515021790555060608201518160010160156101000a81548160ff02191690831515021790555050503373ffffffffffffffffffffffffffffffffffffffff16600180805490506114359190612924565b7fa0ff3e22d4a07b98719ec3f07c82546d61e149eda311d7c74f50042ce504c86684866001604051611469939291906129fc565b60405180910390a3505050565b6002548110156114bb576040517f08c379a00000000000000000000000000000000000000000000000000000000081526004016114b290612c5d565b60405180910390fd5b6000600182815481106114d1576114d06124bd565b5b906000526020600020906002020190508060010160009054906101000a900473ffffffffffffffffffffffffffffffffffffffff1673ffffffffffffffffffffffffffffffffffffffff163373ffffffffffffffffffffffffffffffffffffffff1614611573576040517f08c379a000000000000000000000000000000000000000000000000000000000815260040161156a9061249d565b60405180910390fd5b8060010160149054906101000a900460ff161580156115a057508060010160159054906101000a900460ff165b6115df576040517f08c379a00000000000000000000000000000000000000000000000000000000081526004016115d690612cc9565b60405180910390fd5b60008160010160156101000a81548160ff021916908315150217905550600081600001549050600360009054906101000a900473ffffffffffffffffffffffffffffffffffffffff1673ffffffffffffffffffffffffffffffffffffffff166340c10f1933836040518363ffffffff1660e01b81526004016116629291906128fb565b600060405180830381600087803b15801561167c57600080fd5b505af1158015611690573d6000803e3d6000fd5b505050503373ffffffffffffffffffffffffffffffffffffffff16837fb72782984362f9b5d56b9d898204f1f9f8e37a7b9b0d153cad0b3c40cc88dfaa836040516116db9190611e26565b60405180910390a3505050565b6116f28383611af4565b6116fb8161067f565b505050565b61170a8383611af4565b611713816111cf565b505050565b600460009054906101000a900473ffffffffffffffffffffffffffffffffffffffff1681565b6060611748611b46565b6000803373ffffffffffffffffffffffffffffffffffffffff1673ffffffffffffffffffffffffffffffffffffffff1681526020019081526020016000206001848154811061179a576117996124bd565b5b90600052602060002090600202018180546117b49061285d565b80601f01602080910402602001604051908101604052809291908181526020018280546117e09061285d565b801561182d5780601f106118025761010080835404028352916020019161182d565b820191906000526020600020905b81548152906001019060200180831161181057829003601f168201915b5050505050915080604051806080016040529081600082015481526020016001820160009054906101000a900473ffffffffffffffffffffffffffffffffffffffff1673ffffffffffffffffffffffffffffffffffffffff1673ffffffffffffffffffffffffffffffffffffffff1681526020016001820160149054906101000a900460ff161515151581526020016001820160159054906101000a900460ff161515151581525050905091509150915091565b600073ffffffffffffffffffffffffffffffffffffffff16600360009054906101000a900473ffffffffffffffffffffffffffffffffffffffff1673ffffffffffffffffffffffffffffffffffffffff1614611972576040517f08c379a000000000000000000000000000000000000000000000000000000000815260040161196990612d35565b60405180910390fd5b81600360006101000a81548173ffffffffffffffffffffffffffffffffffffffff021916908373ffffffffffffffffffffffffffffffffffffffff16021790555080600460006101000a81548173ffffffffffffffffffffffffffffffffffffffff021916908373ffffffffffffffffffffffffffffffffffffffff16021790555060006002819055505050565b600360009054906101000a900473ffffffffffffffffffffffffffffffffffffffff1681565b60606000803373ffffffffffffffffffffffffffffffffffffffff1673ffffffffffffffffffffffffffffffffffffffff1681526020019081526020016000208054611a719061285d565b80601f0160208091040260200160405190810160405280929190818152602001828054611a9d9061285d565b8015611aea5780601f10611abf57610100808354040283529160200191611aea565b820191906000526020600020905b815481529060010190602001808311611acd57829003601f168201915b5050505050905090565b81816000803373ffffffffffffffffffffffffffffffffffffffff1673ffffffffffffffffffffffffffffffffffffffff1681526020019081526020016000209190611b41929190611b88565b505050565b604051806080016040528060008152602001600073ffffffffffffffffffffffffffffffffffffffff1681526020016000151581526020016000151581525090565b828054611b949061285d565b90600052602060002090601f016020900481019282611bb65760008555611bfd565b82601f10611bcf57803560ff1916838001178555611bfd565b82800160010185558215611bfd579182015b82811115611bfc578235825591602001919060010190611be1565b5b509050611c0a9190611c0e565b5090565b5b80821115611c27576000816000905550600101611c0f565b5090565b6000604051905090565b600080fd5b600080fd5b600080fd5b6000601f19601f8301169050919050565b7f4e487b7100000000000000000000000000000000000000000000000000000000600052604160045260246000fd5b611c8d82611c44565b810181811067ffffffffffffffff82111715611cac57611cab611c55565b5b80604052505050565b6000611cbf611c2b565b9050611ccb8282611c84565b919050565b600067ffffffffffffffff821115611ceb57611cea611c55565b5b602082029050602081019050919050565b600080fd5b6000819050919050565b611d1481611d01565b8114611d1f57600080fd5b50565b600081359050611d3181611d0b565b92915050565b6000611d4a611d4584611cd0565b611cb5565b90508083825260208201905060208402830185811115611d6d57611d6c611cfc565b5b835b81811015611d965780611d828882611d22565b845260208401935050602081019050611d6f565b5050509392505050565b600082601f830112611db557611db4611c3f565b5b8135611dc5848260208601611d37565b91505092915050565b600060208284031215611de457611de3611c35565b5b600082013567ffffffffffffffff811115611e0257611e01611c3a565b5b611e0e84828501611da0565b91505092915050565b611e2081611d01565b82525050565b6000602082019050611e3b6000830184611e17565b92915050565b600060208284031215611e5757611e56611c35565b5b6000611e6584828501611d22565b91505092915050565b600081519050919050565b600082825260208201905092915050565b6000819050602082019050919050565b600081519050919050565b600082825260208201905092915050565b60005b83811015611ed4578082015181840152602081019050611eb9565b83811115611ee3576000848401525b50505050565b6000611ef482611e9a565b611efe8185611ea5565b9350611f0e818560208601611eb6565b611f1781611c44565b840191505092915050565b6000611f2e8383611ee9565b905092915050565b6000602082019050919050565b6000611f4e82611e6e565b611f588185611e79565b935083602082028501611f6a85611e8a565b8060005b85811015611fa65784840389528151611f878582611f22565b9450611f9283611f36565b925060208a01995050600181019050611f6e565b50829750879550505050505092915050565b600081519050919050565b600082825260208201905092915050565b6000819050602082019050919050565b611fed81611d01565b82525050565b600073ffffffffffffffffffffffffffffffffffffffff82169050919050565b600061201e82611ff3565b9050919050565b61202e81612013565b82525050565b60008115159050919050565b61204981612034565b82525050565b6080820160008201516120656000850182611fe4565b5060208201516120786020850182612025565b50604082015161208b6040850182612040565b50606082015161209e6060850182612040565b50505050565b60006120b0838361204f565b60808301905092915050565b6000602082019050919050565b60006120d482611fb8565b6120de8185611fc3565b93506120e983611fd4565b8060005b8381101561211a57815161210188826120a4565b975061210c836120bc565b9250506001810190506120ed565b5085935050505092915050565b600060608201905061213c6000830186611e17565b818103602083015261214e8185611f43565b9050818103604083015261216281846120c9565b9050949350505050565b600080fd5b60008083601f84011261218757612186611c3f565b5b8235905067ffffffffffffffff8111156121a4576121a361216c565b5b6020830191508360208202830111156121c0576121bf611cfc565b5b9250929050565b600080602083850312156121de576121dd611c35565b5b600083013567ffffffffffffffff8111156121fc576121fb611c3a565b5b61220885828601612171565b92509250509250929050565b60008083601f84011261222a57612229611c3f565b5b8235905067ffffffffffffffff8111156122475761224661216c565b5b60208301915083600182028301111561226357612262611cfc565b5b9250929050565b60008060006040848603121561228357612282611c35565b5b600084013567ffffffffffffffff8111156122a1576122a0611c3a565b5b6122ad86828701612214565b935093505060206122c086828701611d22565b9150509250925092565b6122d381612013565b82525050565b60006020820190506122ee60008301846122ca565b92915050565b600082825260208201905092915050565b600061231082611e9a565b61231a81856122f4565b935061232a818560208601611eb6565b61233381611c44565b840191505092915050565b6080820160008201516123546000850182611fe4565b5060208201516123676020850182612025565b50604082015161237a6040850182612040565b50606082015161238d6060850182612040565b50505050565b600060a08201905081810360008301526123ad8185612305565b90506123bc602083018461233e565b9392505050565b6123cc81612013565b81146123d757600080fd5b50565b6000813590506123e9816123c3565b92915050565b6000806040838503121561240657612405611c35565b5b6000612414858286016123da565b9250506020612425858286016123da565b9150509250929050565b600060208201905081810360008301526124498184612305565b905092915050565b7f4e6f207065726d697373696f6e00000000000000000000000000000000000000600082015250565b6000612487600d836122f4565b915061249282612451565b602082019050919050565b600060208201905081810360008301526124b68161247a565b9050919050565b7f4e487b7100000000000000000000000000000000000000000000000000000000600052603260045260246000fd5b7f52657175657374207769746820696e76616c696420737461746520657869737460008201527f7300000000000000000000000000000000000000000000000000000000000000602082015250565b60006125486021836122f4565b9150612553826124ec565b604082019050919050565b600060208201905081810360008301526125778161253b565b9050919050565b7f4e487b7100000000000000000000000000000000000000000000000000000000600052601160045260246000fd5b60006125b882611d01565b91507fffffffffffffffffffffffffffffffffffffffffffffffffffffffffffffffff8214156125eb576125ea61257e565b5b600182019050919050565b600081519050919050565b600082825260208201905092915050565b6000819050602082019050919050565b600061262e8383612025565b60208301905092915050565b6000602082019050919050565b6000612652826125f6565b61265c8185612601565b935061266783612612565b8060005b8381101561269857815161267f8882612622565b975061268a8361263a565b92505060018101905061266b565b5085935050505092915050565b600081519050919050565b600082825260208201905092915050565b6000819050602082019050919050565b60006126dd8383611fe4565b60208301905092915050565b6000602082019050919050565b6000612701826126a5565b61270b81856126b0565b9350612716836126c1565b8060005b8381101561274757815161272e88826126d1565b9750612739836126e9565b92505060018101905061271a565b5085935050505092915050565b6000604082019050818103600083015261276e8185612647565b9050818103602083015261278281846126f6565b90509392505050565b600060408201905081810360008301526127a581856126f6565b905081810360208301526127b98184612647565b90509392505050565b7f5265717565737420616d6f756e742073686f756c64206e6f7420626520300000600082015250565b60006127f8601e836122f4565b9150612803826127c2565b602082019050919050565b60006020820190508181036000830152612827816127eb565b9050919050565b7f4e487b7100000000000000000000000000000000000000000000000000000000600052602260045260246000fd5b6000600282049050600182168061287557607f821691505b602082108114156128895761288861282e565b5b50919050565b7f5365742067616d65494420666f72207468697320616464726573730000000000600082015250565b60006128c5601b836122f4565b91506128d08261288f565b602082019050919050565b600060208201905081810360008301526128f4816128b8565b9050919050565b600060408201905061291060008301856122ca565b61291d6020830184611e17565b9392505050565b600061292f82611d01565b915061293a83611d01565b92508282101561294d5761294c61257e565b5b828203905092915050565b60008190508160005260206000209050919050565b6000815461297a8161285d565b61298481866122f4565b9450600182166000811461299f57600181146129b1576129e4565b60ff19831686526020860193506129e4565b6129ba85612958565b60005b838110156129dc578154818901526001820191506020810190506129bd565b808801955050505b50505092915050565b6129f681612034565b82525050565b60006060820190508181036000830152612a16818661296d565b9050612a256020830185611e17565b612a3260408301846129ed565b949350505050565b7f426f6f6b6d61726b2063616e6e6f742062652064656372656173656400000000600082015250565b6000612a70601c836122f4565b9150612a7b82612a3a565b602082019050919050565b60006020820190508181036000830152612a9f81612a63565b9050919050565b7f4e6f7468696e6720746f20726561640000000000000000000000000000000000600082015250565b6000612adc600f836122f4565b9150612ae782612aa6565b602082019050919050565b60006020820190508181036000830152612b0b81612acf565b9050919050565b6000612b1d82611d01565b9150612b2883611d01565b9250827fffffffffffffffffffffffffffffffffffffffffffffffffffffffffffffffff03821115612b5d57612b5c61257e565b5b828201905092915050565b600080fd5b82818337600083830152505050565b6000612b8883856126b0565b93507f07ffffffffffffffffffffffffffffffffffffffffffffffffffffffffffffff831115612bbb57612bba612b68565b5b602083029250612bcc838584612b6d565b82840190509392505050565b60006040820190508181036000830152612bf3818587612b7c565b90508181036020830152612c078184612647565b9050949350505050565b7f5265717565737420697320616c72656164792072656164000000000000000000600082015250565b6000612c476017836122f4565b9150612c5282612c11565b602082019050919050565b60006020820190508181036000830152612c7681612c3a565b9050919050565b7f496e76616c696420726571756573742073746174650000000000000000000000600082015250565b6000612cb36015836122f4565b9150612cbe82612c7d565b602082019050919050565b60006020820190508181036000830152612ce281612ca6565b9050919050565b7f416c726561647920696e697469616c697a656400000000000000000000000000600082015250565b6000612d1f6013836122f4565b9150612d2a82612ce9565b602082019050919050565b60006020820190508181036000830152612d4e81612d12565b905091905056fea264697066735822122033fec2a4005482ed5c5334ba0fa06500ef96832b915f397da9ff9b47a7dc923364736f6c63430008090033",
  "immutableReferences": {},
  "source": "// SPDX-License-Identifier: MIT\npragma solidity ^0.8.0;\n\nimport './ERC20Example.sol';\nimport './Request.sol';\nimport '@openzeppelin/contracts/proxy/Clones.sol';\n\n// clone factory for tokens & corresponding request managers\ncontract Factory {\n\n    // zero index elements are library for clones\n    address[] public tokens;\n    address[] public requests;\n\n    event RequestTokenCreated(address request, address token, uint256 index);\n\n    constructor() {\n        address token = address(new ERC20Example(\"\", \"\"));\n        address request = address(new RequestManager());\n        ERC20Example(token).init(\"Library\", \"LIB\", 0, request);\n        RequestManager(request).init(token, msg.sender);\n        tokens.push(token);\n        requests.push(request);\n    }\n\n    function createToken(string memory name, string memory symbol, uint8 decimals) public {\n        address token = Clones.clone(tokens[0]);\n        address request = Clones.clone(requests[0]);\n        ERC20Example(token).init(name, symbol, decimals, request);\n        RequestManager(request).init(token, msg.sender);\n        tokens.push(token);\n        requests.push(request);\n\n        emit RequestTokenCreated(request, token, tokens.length - 1);\n    }\n\n    function getTokenAddress(uint256 idx) public view returns (address token) {\n        token = tokens[idx];\n    }\n\n    function getRequestAddress(uint256 idx) public view returns (address request) {\n        request = requests[idx];\n    }\n\n}",
  "sourcePath": "/Users/bagdongho/Desktop/web3-tutorials/WEB3-TUTORIAL/truffle/contracts/Factory.sol",
  "compiler": {
    "name": "solc",
    "version": "0.8.9+commit.e5eed63a.Emscripten.clang"
  },
  "schemaVersion": "3.4.7",
  "updatedAt": "2022-06-13T09:50:45.517Z",
  "devdoc": {
    "kind": "dev",
    "methods": {},
    "version": 1
  },
  "userdoc": {
    "kind": "user",
    "methods": {},
    "version": 1
  }
}