{
  "contractName": "Factory",
  "abi": [
    {
      "inputs": [],
      "stateMutability": "nonpayable",
      "type": "constructor"
    },
    {
      "inputs": [
        {
          "internalType": "uint256",
          "name": "",
          "type": "uint256"
        }
      ],
      "name": "requests",
      "outputs": [
        {
          "internalType": "address",
          "name": "",
          "type": "address"
        }
      ],
      "stateMutability": "view",
      "type": "function"
    },
    {
      "inputs": [
        {
          "internalType": "uint256",
          "name": "",
          "type": "uint256"
        }
      ],
      "name": "tokens",
      "outputs": [
        {
          "internalType": "address",
          "name": "",
          "type": "address"
        }
      ],
      "stateMutability": "view",
      "type": "function"
    },
    {
      "inputs": [
        {
          "internalType": "string",
          "name": "name",
          "type": "string"
        },
        {
          "internalType": "string",
          "name": "symbol",
          "type": "string"
        },
        {
          "internalType": "uint8",
          "name": "decimals",
          "type": "uint8"
        }
      ],
      "name": "createToken",
      "outputs": [],
      "stateMutability": "nonpayable",
      "type": "function"
    },
    {
      "inputs": [
        {
          "internalType": "uint256",
          "name": "idx",
          "type": "uint256"
        }
      ],
      "name": "getTokenAddress",
      "outputs": [
        {
          "internalType": "address",
          "name": "token",
          "type": "address"
        }
      ],
      "stateMutability": "view",
      "type": "function"
    },
    {
      "inputs": [
        {
          "internalType": "uint256",
          "name": "idx",
          "type": "uint256"
        }
      ],
      "name": "getRequestAddress",
      "outputs": [
        {
          "internalType": "address",
          "name": "request",
          "type": "address"
        }
      ],
      "stateMutability": "view",
      "type": "function"
    }
  ],
  "bytecode": "0x608060405234801561001057600080fd5b50600060405161001f90610141565b61002890610206565b604051809103906000f080158015610044573d6000803e3d6000fd5b50905060006040516100559061014f565b604051809103906000f080158015610071573d6000803e3d6000fd5b5090506000829080600181540180825580915050600190039060005260206000200160009091909190916101000a81548173ffffffffffffffffffffffffffffffffffffffff021916908373ffffffffffffffffffffffffffffffffffffffff1602179055506001819080600181540180825580915050600190039060005260206000200160009091909190916101000a81548173ffffffffffffffffffffffffffffffffffffffff021916908373ffffffffffffffffffffffffffffffffffffffff1602179055505050610239565b61253d8062000c6683390190565b61265580620031a383390190565b600082825260208201905092915050565b7f5a65726f496e646578546f6b656e000000000000000000000000000000000000600082015250565b60006101a4600e8361015d565b91506101af8261016e565b602082019050919050565b7f5a49540000000000000000000000000000000000000000000000000000000000600082015250565b60006101f060038361015d565b91506101fb826101ba565b602082019050919050565b6000604082019050818103600083015261021f81610197565b90508181036020830152610232816101e3565b9050919050565b610a1d80620002496000396000f3fe608060405234801561001057600080fd5b50600436106100575760003560e01c80634f64b2be1461005c57806367ccdf381461008c57806381d12c58146100bc578063e74543b5146100ec578063e8a0aed31461011c575b600080fd5b610076600480360381019061007191906105a6565b610138565b6040516100839190610614565b60405180910390f35b6100a660048036038101906100a191906105a6565b610177565b6040516100b39190610614565b60405180910390f35b6100d660048036038101906100d191906105a6565b6101be565b6040516100e39190610614565b60405180910390f35b610106600480360381019061010191906105a6565b6101fd565b6040516101139190610614565b60405180910390f35b610136600480360381019061013191906107ae565b610245565b005b6000818154811061014857600080fd5b906000526020600020016000915054906101000a900473ffffffffffffffffffffffffffffffffffffffff1681565b600080828154811061018c5761018b610839565b5b9060005260206000200160009054906101000a900473ffffffffffffffffffffffffffffffffffffffff169050919050565b600181815481106101ce57600080fd5b906000526020600020016000915054906101000a900473ffffffffffffffffffffffffffffffffffffffff1681565b60006001828154811061021357610212610839565b5b9060005260206000200160009054906101000a900473ffffffffffffffffffffffffffffffffffffffff169050919050565b600061028e6000808154811061025e5761025d610839565b5b9060005260206000200160009054906101000a900473ffffffffffffffffffffffffffffffffffffffff16610487565b905060006102da60016000815481106102aa576102a9610839565b5b9060005260206000200160009054906101000a900473ffffffffffffffffffffffffffffffffffffffff16610487565b90508173ffffffffffffffffffffffffffffffffffffffff166398cbefbe868686856040518563ffffffff1660e01b815260040161031b94939291906108ff565b600060405180830381600087803b15801561033557600080fd5b505af1158015610349573d6000803e3d6000fd5b505050508073ffffffffffffffffffffffffffffffffffffffff1663f09a401683336040518363ffffffff1660e01b8152600401610388929190610952565b600060405180830381600087803b1580156103a257600080fd5b505af11580156103b6573d6000803e3d6000fd5b505050506000829080600181540180825580915050600190039060005260206000200160009091909190916101000a81548173ffffffffffffffffffffffffffffffffffffffff021916908373ffffffffffffffffffffffffffffffffffffffff1602179055506001819080600181540180825580915050600190039060005260206000200160009091909190916101000a81548173ffffffffffffffffffffffffffffffffffffffff021916908373ffffffffffffffffffffffffffffffffffffffff1602179055505050505050565b60006040517f3d602d80600a3d3981f3363d3d373d3d3d363d7300000000000000000000000081528260601b60148201527f5af43d82803e903d91602b57fd5bf3000000000000000000000000000000000060288201526037816000f0915050600073ffffffffffffffffffffffffffffffffffffffff168173ffffffffffffffffffffffffffffffffffffffff161415610557576040517f08c379a000000000000000000000000000000000000000000000000000000000815260040161054e906109c7565b60405180910390fd5b919050565b6000604051905090565b600080fd5b600080fd5b6000819050919050565b61058381610570565b811461058e57600080fd5b50565b6000813590506105a08161057a565b92915050565b6000602082840312156105bc576105bb610566565b5b60006105ca84828501610591565b91505092915050565b600073ffffffffffffffffffffffffffffffffffffffff82169050919050565b60006105fe826105d3565b9050919050565b61060e816105f3565b82525050565b60006020820190506106296000830184610605565b92915050565b600080fd5b600080fd5b6000601f19601f8301169050919050565b7f4e487b7100000000000000000000000000000000000000000000000000000000600052604160045260246000fd5b61068282610639565b810181811067ffffffffffffffff821117156106a1576106a061064a565b5b80604052505050565b60006106b461055c565b90506106c08282610679565b919050565b600067ffffffffffffffff8211156106e0576106df61064a565b5b6106e982610639565b9050602081019050919050565b82818337600083830152505050565b6000610718610713846106c5565b6106aa565b90508281526020810184848401111561073457610733610634565b5b61073f8482856106f6565b509392505050565b600082601f83011261075c5761075b61062f565b5b813561076c848260208601610705565b91505092915050565b600060ff82169050919050565b61078b81610775565b811461079657600080fd5b50565b6000813590506107a881610782565b92915050565b6000806000606084860312156107c7576107c6610566565b5b600084013567ffffffffffffffff8111156107e5576107e461056b565b5b6107f186828701610747565b935050602084013567ffffffffffffffff8111156108125761081161056b565b5b61081e86828701610747565b925050604061082f86828701610799565b9150509250925092565b7f4e487b7100000000000000000000000000000000000000000000000000000000600052603260045260246000fd5b600081519050919050565b600082825260208201905092915050565b60005b838110156108a2578082015181840152602081019050610887565b838111156108b1576000848401525b50505050565b60006108c282610868565b6108cc8185610873565b93506108dc818560208601610884565b6108e581610639565b840191505092915050565b6108f981610775565b82525050565b6000608082019050818103600083015261091981876108b7565b9050818103602083015261092d81866108b7565b905061093c60408301856108f0565b6109496060830184610605565b95945050505050565b60006040820190506109676000830185610605565b6109746020830184610605565b9392505050565b7f455243313136373a20637265617465206661696c656400000000000000000000600082015250565b60006109b1601683610873565b91506109bc8261097b565b602082019050919050565b600060208201905081810360008301526109e0816109a4565b905091905056fea2646970667358221220d8b7bd368090e7593f0a04dedbbd74937c234d2890650b9779469f929ffb5bd464736f6c6343000809003360806040523480156200001157600080fd5b506040516200253d3803806200253d8339818101604052810190620000379190620002c2565b818181600390805190602001906200005192919062000075565b5080600490805190602001906200006a92919062000075565b5050505050620003ac565b828054620000839062000376565b90600052602060002090601f016020900481019282620000a75760008555620000f3565b82601f10620000c257805160ff1916838001178555620000f3565b82800160010185558215620000f3579182015b82811115620000f2578251825591602001919060010190620000d5565b5b50905062000102919062000106565b5090565b5b808211156200012157600081600090555060010162000107565b5090565b6000604051905090565b600080fd5b600080fd5b600080fd5b600080fd5b6000601f19601f8301169050919050565b7f4e487b7100000000000000000000000000000000000000000000000000000000600052604160045260246000fd5b6200018e8262000143565b810181811067ffffffffffffffff82111715620001b057620001af62000154565b5b80604052505050565b6000620001c562000125565b9050620001d3828262000183565b919050565b600067ffffffffffffffff821115620001f657620001f562000154565b5b620002018262000143565b9050602081019050919050565b60005b838110156200022e57808201518184015260208101905062000211565b838111156200023e576000848401525b50505050565b60006200025b6200025584620001d8565b620001b9565b9050828152602081018484840111156200027a57620002796200013e565b5b620002878482856200020e565b509392505050565b600082601f830112620002a757620002a662000139565b5b8151620002b984826020860162000244565b91505092915050565b60008060408385031215620002dc57620002db6200012f565b5b600083015167ffffffffffffffff811115620002fd57620002fc62000134565b5b6200030b858286016200028f565b925050602083015167ffffffffffffffff8111156200032f576200032e62000134565b5b6200033d858286016200028f565b9150509250929050565b7f4e487b7100000000000000000000000000000000000000000000000000000000600052602260045260246000fd5b600060028204905060018216806200038f57607f821691505b60208210811415620003a657620003a562000347565b5b50919050565b61218180620003bc6000396000f3fe608060405234801561001057600080fd5b50600436106100f55760003560e01c806370a0823111610097578063a457c2d711610066578063a457c2d714610286578063a9059cbb146102b6578063ae0b61ba146102e6578063dd62ed3e14610302576100f5565b806370a082311461020057806395d89b411461023057806398cbefbe1461024e5780639dc29fac1461026a576100f5565b806323b872dd116100d357806323b872dd14610166578063313ce5671461019657806339509351146101b457806340c10f19146101e4576100f5565b806306fdde03146100fa578063095ea7b31461011857806318160ddd14610148575b600080fd5b610102610332565b60405161010f9190611315565b60405180910390f35b610132600480360381019061012d91906113df565b6103c4565b60405161013f919061143a565b60405180910390f35b6101506103e7565b60405161015d9190611464565b60405180910390f35b610180600480360381019061017b919061147f565b6103f1565b60405161018d919061143a565b60405180910390f35b61019e610420565b6040516101ab91906114ee565b60405180910390f35b6101ce60048036038101906101c991906113df565b610437565b6040516101db919061143a565b60405180910390f35b6101fe60048036038101906101f991906113df565b61046e565b005b61021a60048036038101906102159190611509565b61050c565b6040516102279190611464565b60405180910390f35b610238610554565b6040516102459190611315565b60405180910390f35b61026860048036038101906102639190611697565b6105e6565b005b610284600480360381019061027f91906113df565b610707565b005b6102a0600480360381019061029b91906113df565b6107a5565b6040516102ad919061143a565b60405180910390f35b6102d060048036038101906102cb91906113df565b61081c565b6040516102dd919061143a565b60405180910390f35b61030060048036038101906102fb91906118c1565b61083f565b005b61031c60048036038101906103179190611939565b610931565b6040516103299190611464565b60405180910390f35b606060058054610341906119a8565b80601f016020809104026020016040519081016040528092919081815260200182805461036d906119a8565b80156103ba5780601f1061038f576101008083540402835291602001916103ba565b820191906000526020600020905b81548152906001019060200180831161039d57829003601f168201915b5050505050905090565b6000806103cf6109b8565b90506103dc8185856109c0565b600191505092915050565b6000600254905090565b6000806103fc6109b8565b9050610409858285610b8b565b610414858585610c17565b60019150509392505050565b6000600760009054906101000a900460ff16905090565b6000806104426109b8565b90506104638185856104548589610931565b61045e9190611a09565b6109c0565b600191505092915050565b600760019054906101000a900473ffffffffffffffffffffffffffffffffffffffff1673ffffffffffffffffffffffffffffffffffffffff163373ffffffffffffffffffffffffffffffffffffffff16146104fe576040517f08c379a00000000000000000000000000000000000000000000000000000000081526004016104f590611aab565b60405180910390fd5b6105088282610e98565b5050565b60008060008373ffffffffffffffffffffffffffffffffffffffff1673ffffffffffffffffffffffffffffffffffffffff168152602001908152602001600020549050919050565b606060068054610563906119a8565b80601f016020809104026020016040519081016040528092919081815260200182805461058f906119a8565b80156105dc5780601f106105b1576101008083540402835291602001916105dc565b820191906000526020600020905b8154815290600101906020018083116105bf57829003601f168201915b5050505050905090565b600073ffffffffffffffffffffffffffffffffffffffff16600760019054906101000a900473ffffffffffffffffffffffffffffffffffffffff1673ffffffffffffffffffffffffffffffffffffffff1614610677576040517f08c379a000000000000000000000000000000000000000000000000000000000815260040161066e90611b17565b60405180910390fd5b836005908051906020019061068d9291906111d9565b5082600690805190602001906106a49291906111d9565b5081600760006101000a81548160ff021916908360ff16021790555080600760016101000a81548173ffffffffffffffffffffffffffffffffffffffff021916908373ffffffffffffffffffffffffffffffffffffffff16021790555050505050565b600760019054906101000a900473ffffffffffffffffffffffffffffffffffffffff1673ffffffffffffffffffffffffffffffffffffffff163373ffffffffffffffffffffffffffffffffffffffff1614610797576040517f08c379a000000000000000000000000000000000000000000000000000000000815260040161078e90611aab565b60405180910390fd5b6107a18282610ff8565b5050565b6000806107b06109b8565b905060006107be8286610931565b905083811015610803576040517f08c379a00000000000000000000000000000000000000000000000000000000081526004016107fa90611ba9565b60405180910390fd5b61081082868684036109c0565b60019250505092915050565b6000806108276109b8565b9050610834818585610c17565b600191505092915050565b600760019054906101000a900473ffffffffffffffffffffffffffffffffffffffff1673ffffffffffffffffffffffffffffffffffffffff163373ffffffffffffffffffffffffffffffffffffffff16146108cf576040517f08c379a00000000000000000000000000000000000000000000000000000000081526004016108c690611aab565b60405180910390fd5b60005b825181101561092c576109198382815181106108f1576108f0611bc9565b5b602002602001015183838151811061090c5761090b611bc9565b5b6020026020010151610e98565b808061092490611bf8565b9150506108d2565b505050565b6000600160008473ffffffffffffffffffffffffffffffffffffffff1673ffffffffffffffffffffffffffffffffffffffff16815260200190815260200160002060008373ffffffffffffffffffffffffffffffffffffffff1673ffffffffffffffffffffffffffffffffffffffff16815260200190815260200160002054905092915050565b600033905090565b600073ffffffffffffffffffffffffffffffffffffffff168373ffffffffffffffffffffffffffffffffffffffff161415610a30576040517f08c379a0000000000000000000000000000000000000000000000000000000008152600401610a2790611cb3565b60405180910390fd5b600073ffffffffffffffffffffffffffffffffffffffff168273ffffffffffffffffffffffffffffffffffffffff161415610aa0576040517f08c379a0000000000000000000000000000000000000000000000000000000008152600401610a9790611d45565b60405180910390fd5b80600160008573ffffffffffffffffffffffffffffffffffffffff1673ffffffffffffffffffffffffffffffffffffffff16815260200190815260200160002060008473ffffffffffffffffffffffffffffffffffffffff1673ffffffffffffffffffffffffffffffffffffffff168152602001908152602001600020819055508173ffffffffffffffffffffffffffffffffffffffff168373ffffffffffffffffffffffffffffffffffffffff167f8c5be1e5ebec7d5bd14f71427d1e84f3dd0314c0f7b2291e5b200ac8c7c3b92583604051610b7e9190611464565b60405180910390a3505050565b6000610b978484610931565b90507fffffffffffffffffffffffffffffffffffffffffffffffffffffffffffffffff8114610c115781811015610c03576040517f08c379a0000000000000000000000000000000000000000000000000000000008152600401610bfa90611db1565b60405180910390fd5b610c1084848484036109c0565b5b50505050565b600073ffffffffffffffffffffffffffffffffffffffff168373ffffffffffffffffffffffffffffffffffffffff161415610c87576040517f08c379a0000000000000000000000000000000000000000000000000000000008152600401610c7e90611e43565b60405180910390fd5b600073ffffffffffffffffffffffffffffffffffffffff168273ffffffffffffffffffffffffffffffffffffffff161415610cf7576040517f08c379a0000000000000000000000000000000000000000000000000000000008152600401610cee90611ed5565b60405180910390fd5b610d028383836111cf565b60008060008573ffffffffffffffffffffffffffffffffffffffff1673ffffffffffffffffffffffffffffffffffffffff16815260200190815260200160002054905081811015610d88576040517f08c379a0000000000000000000000000000000000000000000000000000000008152600401610d7f90611f67565b60405180910390fd5b8181036000808673ffffffffffffffffffffffffffffffffffffffff1673ffffffffffffffffffffffffffffffffffffffff16815260200190815260200160002081905550816000808573ffffffffffffffffffffffffffffffffffffffff1673ffffffffffffffffffffffffffffffffffffffff1681526020019081526020016000206000828254610e1b9190611a09565b925050819055508273ffffffffffffffffffffffffffffffffffffffff168473ffffffffffffffffffffffffffffffffffffffff167fddf252ad1be2c89b69c2b068fc378daa952ba7f163c4a11628f55a4df523b3ef84604051610e7f9190611464565b60405180910390a3610e928484846111d4565b50505050565b600073ffffffffffffffffffffffffffffffffffffffff168273ffffffffffffffffffffffffffffffffffffffff161415610f08576040517f08c379a0000000000000000000000000000000000000000000000000000000008152600401610eff90611fd3565b60405180910390fd5b610f14600083836111cf565b8060026000828254610f269190611a09565b92505081905550806000808473ffffffffffffffffffffffffffffffffffffffff1673ffffffffffffffffffffffffffffffffffffffff1681526020019081526020016000206000828254610f7b9190611a09565b925050819055508173ffffffffffffffffffffffffffffffffffffffff16600073ffffffffffffffffffffffffffffffffffffffff167fddf252ad1be2c89b69c2b068fc378daa952ba7f163c4a11628f55a4df523b3ef83604051610fe09190611464565b60405180910390a3610ff4600083836111d4565b5050565b600073ffffffffffffffffffffffffffffffffffffffff168273ffffffffffffffffffffffffffffffffffffffff161415611068576040517f08c379a000000000000000000000000000000000000000000000000000000000815260040161105f90612065565b60405180910390fd5b611074826000836111cf565b60008060008473ffffffffffffffffffffffffffffffffffffffff1673ffffffffffffffffffffffffffffffffffffffff168152602001908152602001600020549050818110156110fa576040517f08c379a00000000000000000000000000000000000000000000000000000000081526004016110f1906120f7565b60405180910390fd5b8181036000808573ffffffffffffffffffffffffffffffffffffffff1673ffffffffffffffffffffffffffffffffffffffff1681526020019081526020016000208190555081600260008282546111519190612117565b92505081905550600073ffffffffffffffffffffffffffffffffffffffff168373ffffffffffffffffffffffffffffffffffffffff167fddf252ad1be2c89b69c2b068fc378daa952ba7f163c4a11628f55a4df523b3ef846040516111b69190611464565b60405180910390a36111ca836000846111d4565b505050565b505050565b505050565b8280546111e5906119a8565b90600052602060002090601f016020900481019282611207576000855561124e565b82601f1061122057805160ff191683800117855561124e565b8280016001018555821561124e579182015b8281111561124d578251825591602001919060010190611232565b5b50905061125b919061125f565b5090565b5b80821115611278576000816000905550600101611260565b5090565b600081519050919050565b600082825260208201905092915050565b60005b838110156112b657808201518184015260208101905061129b565b838111156112c5576000848401525b50505050565b6000601f19601f8301169050919050565b60006112e78261127c565b6112f18185611287565b9350611301818560208601611298565b61130a816112cb565b840191505092915050565b6000602082019050818103600083015261132f81846112dc565b905092915050565b6000604051905090565b600080fd5b600080fd5b600073ffffffffffffffffffffffffffffffffffffffff82169050919050565b60006113768261134b565b9050919050565b6113868161136b565b811461139157600080fd5b50565b6000813590506113a38161137d565b92915050565b6000819050919050565b6113bc816113a9565b81146113c757600080fd5b50565b6000813590506113d9816113b3565b92915050565b600080604083850312156113f6576113f5611341565b5b600061140485828601611394565b9250506020611415858286016113ca565b9150509250929050565b60008115159050919050565b6114348161141f565b82525050565b600060208201905061144f600083018461142b565b92915050565b61145e816113a9565b82525050565b60006020820190506114796000830184611455565b92915050565b60008060006060848603121561149857611497611341565b5b60006114a686828701611394565b93505060206114b786828701611394565b92505060406114c8868287016113ca565b9150509250925092565b600060ff82169050919050565b6114e8816114d2565b82525050565b600060208201905061150360008301846114df565b92915050565b60006020828403121561151f5761151e611341565b5b600061152d84828501611394565b91505092915050565b600080fd5b600080fd5b7f4e487b7100000000000000000000000000000000000000000000000000000000600052604160045260246000fd5b611578826112cb565b810181811067ffffffffffffffff8211171561159757611596611540565b5b80604052505050565b60006115aa611337565b90506115b6828261156f565b919050565b600067ffffffffffffffff8211156115d6576115d5611540565b5b6115df826112cb565b9050602081019050919050565b82818337600083830152505050565b600061160e611609846115bb565b6115a0565b90508281526020810184848401111561162a5761162961153b565b5b6116358482856115ec565b509392505050565b600082601f83011261165257611651611536565b5b81356116628482602086016115fb565b91505092915050565b611674816114d2565b811461167f57600080fd5b50565b6000813590506116918161166b565b92915050565b600080600080608085870312156116b1576116b0611341565b5b600085013567ffffffffffffffff8111156116cf576116ce611346565b5b6116db8782880161163d565b945050602085013567ffffffffffffffff8111156116fc576116fb611346565b5b6117088782880161163d565b935050604061171987828801611682565b925050606061172a87828801611394565b91505092959194509250565b600067ffffffffffffffff82111561175157611750611540565b5b602082029050602081019050919050565b600080fd5b600061177a61177584611736565b6115a0565b9050808382526020820190506020840283018581111561179d5761179c611762565b5b835b818110156117c657806117b28882611394565b84526020840193505060208101905061179f565b5050509392505050565b600082601f8301126117e5576117e4611536565b5b81356117f5848260208601611767565b91505092915050565b600067ffffffffffffffff82111561181957611818611540565b5b602082029050602081019050919050565b600061183d611838846117fe565b6115a0565b905080838252602082019050602084028301858111156118605761185f611762565b5b835b81811015611889578061187588826113ca565b845260208401935050602081019050611862565b5050509392505050565b600082601f8301126118a8576118a7611536565b5b81356118b884826020860161182a565b91505092915050565b600080604083850312156118d8576118d7611341565b5b600083013567ffffffffffffffff8111156118f6576118f5611346565b5b611902858286016117d0565b925050602083013567ffffffffffffffff81111561192357611922611346565b5b61192f85828601611893565b9150509250929050565b600080604083850312156119505761194f611341565b5b600061195e85828601611394565b925050602061196f85828601611394565b9150509250929050565b7f4e487b7100000000000000000000000000000000000000000000000000000000600052602260045260246000fd5b600060028204905060018216806119c057607f821691505b602082108114156119d4576119d3611979565b5b50919050565b7f4e487b7100000000000000000000000000000000000000000000000000000000600052601160045260246000fd5b6000611a14826113a9565b9150611a1f836113a9565b9250827fffffffffffffffffffffffffffffffffffffffffffffffffffffffffffffffff03821115611a5457611a536119da565b5b828201905092915050565b7f546f6b656e3a206e6f207065726d697373696f6e000000000000000000000000600082015250565b6000611a95601483611287565b9150611aa082611a5f565b602082019050919050565b60006020820190508181036000830152611ac481611a88565b9050919050565b7f546f6b656e3a20616c726561647920696e697469616c697a6564000000000000600082015250565b6000611b01601a83611287565b9150611b0c82611acb565b602082019050919050565b60006020820190508181036000830152611b3081611af4565b9050919050565b7f45524332303a2064656372656173656420616c6c6f77616e63652062656c6f7760008201527f207a65726f000000000000000000000000000000000000000000000000000000602082015250565b6000611b93602583611287565b9150611b9e82611b37565b604082019050919050565b60006020820190508181036000830152611bc281611b86565b9050919050565b7f4e487b7100000000000000000000000000000000000000000000000000000000600052603260045260246000fd5b6000611c03826113a9565b91507fffffffffffffffffffffffffffffffffffffffffffffffffffffffffffffffff821415611c3657611c356119da565b5b600182019050919050565b7f45524332303a20617070726f76652066726f6d20746865207a65726f2061646460008201527f7265737300000000000000000000000000000000000000000000000000000000602082015250565b6000611c9d602483611287565b9150611ca882611c41565b604082019050919050565b60006020820190508181036000830152611ccc81611c90565b9050919050565b7f45524332303a20617070726f766520746f20746865207a65726f20616464726560008201527f7373000000000000000000000000000000000000000000000000000000000000602082015250565b6000611d2f602283611287565b9150611d3a82611cd3565b604082019050919050565b60006020820190508181036000830152611d5e81611d22565b9050919050565b7f45524332303a20696e73756666696369656e7420616c6c6f77616e6365000000600082015250565b6000611d9b601d83611287565b9150611da682611d65565b602082019050919050565b60006020820190508181036000830152611dca81611d8e565b9050919050565b7f45524332303a207472616e736665722066726f6d20746865207a65726f20616460008201527f6472657373000000000000000000000000000000000000000000000000000000602082015250565b6000611e2d602583611287565b9150611e3882611dd1565b604082019050919050565b60006020820190508181036000830152611e5c81611e20565b9050919050565b7f45524332303a207472616e7366657220746f20746865207a65726f206164647260008201527f6573730000000000000000000000000000000000000000000000000000000000602082015250565b6000611ebf602383611287565b9150611eca82611e63565b604082019050919050565b60006020820190508181036000830152611eee81611eb2565b9050919050565b7f45524332303a207472616e7366657220616d6f756e742065786365656473206260008201527f616c616e63650000000000000000000000000000000000000000000000000000602082015250565b6000611f51602683611287565b9150611f5c82611ef5565b604082019050919050565b60006020820190508181036000830152611f8081611f44565b9050919050565b7f45524332303a206d696e7420746f20746865207a65726f206164647265737300600082015250565b6000611fbd601f83611287565b9150611fc882611f87565b602082019050919050565b60006020820190508181036000830152611fec81611fb0565b9050919050565b7f45524332303a206275726e2066726f6d20746865207a65726f2061646472657360008201527f7300000000000000000000000000000000000000000000000000000000000000602082015250565b600061204f602183611287565b915061205a82611ff3565b604082019050919050565b6000602082019050818103600083015261207e81612042565b9050919050565b7f45524332303a206275726e20616d6f756e7420657863656564732062616c616e60008201527f6365000000000000000000000000000000000000000000000000000000000000602082015250565b60006120e1602283611287565b91506120ec82612085565b604082019050919050565b60006020820190508181036000830152612110816120d4565b9050919050565b6000612122826113a9565b915061212d836113a9565b9250828210156121405761213f6119da565b5b82820390509291505056fea264697066735822122009720ce9640296eba4a14e4e71baffd1a49e2b55c8992de1257f7aa9b4330b7564736f6c63430008090033608060405234801561001057600080fd5b50612635806100206000396000f3fe608060405234801561001057600080fd5b50600436106100cf5760003560e01c80634a4062881161008c578063c58343ef11610066578063c58343ef146101f0578063c6b0526614610222578063f09a401614610240578063fc0c546a1461025c576100cf565b80634a406288146101965780635553afb6146101b257806357de26a4146101ce576100cf565b80630926c69c146100d45780630d219c4c146100f057806328b2ca551461010e578063340722ae1461012a5780633463aa9b1461014657806346f3bec01461017a575b600080fd5b6100ee60048036038101906100e991906118ba565b61027a565b005b6100f86105bd565b6040516101059190611912565b60405180910390f35b610128600480360381019061012391906119e2565b6105c3565b005b610144600480360381019061013f9190611a3e565b6107eb565b005b610160600480360381019061015b9190611a3e565b6108c9565b604051610171959493929190611d3d565b60405180910390f35b610194600480360381019061018f91906118ba565b610ca1565b005b6101b060048036038101906101ab91906119e2565b610fe4565b005b6101cc60048036038101906101c79190611a3e565b61117d565b005b6101d66113bd565b6040516101e7959493929190611d3d565b60405180910390f35b61020a60048036038101906102059190611a3e565b6113e1565b60405161021993929190611e05565b60405180910390f35b61022a6114c0565b6040516102379190611e84565b60405180910390f35b61025a60048036038101906102559190611ecb565b6114e6565b005b610264611605565b6040516102719190611e84565b60405180910390f35b600360009054906101000a900473ffffffffffffffffffffffffffffffffffffffff1673ffffffffffffffffffffffffffffffffffffffff163373ffffffffffffffffffffffffffffffffffffffff161461030a576040517f08c379a000000000000000000000000000000000000000000000000000000000815260040161030190611f57565b60405180910390fd5b60008151905060008167ffffffffffffffff81111561032c5761032b611741565b5b60405190808252806020026020018201604052801561035a5781602001602082028036833780820191505090505b50905060008267ffffffffffffffff81111561037957610378611741565b5b6040519080825280602002602001820160405280156103a75781602001602082028036833780820191505090505b50905060005b83811015610527576000808683815181106103cb576103ca611f77565b5b6020026020010151815481106103e4576103e3611f77565b5b906000526020600020906004020190508060030160009054906101000a900460ff1615801561042157508060030160019054906101000a900460ff165b610460576040517f08c379a000000000000000000000000000000000000000000000000000000000815260040161045790612018565b60405180910390fd5b8060000160009054906101000a900473ffffffffffffffffffffffffffffffffffffffff1684838151811061049857610497611f77565b5b602002602001019073ffffffffffffffffffffffffffffffffffffffff16908173ffffffffffffffffffffffffffffffffffffffff168152505080600101548383815181106104ea576104e9611f77565b5b60200260200101818152505060008160030160016101000a81548160ff02191690831515021790555050808061051f90612067565b9150506103ad565b50600260009054906101000a900473ffffffffffffffffffffffffffffffffffffffff1673ffffffffffffffffffffffffffffffffffffffff1663ae0b61ba83836040518363ffffffff1660e01b815260040161058592919061216e565b600060405180830381600087803b15801561059f57600080fd5b505af11580156105b3573d6000803e3d6000fd5b5050505050505050565b60015481565b60008111610606576040517f08c379a00000000000000000000000000000000000000000000000000000000081526004016105fd90612217565b60405180910390fd5b600260009054906101000a900473ffffffffffffffffffffffffffffffffffffffff1673ffffffffffffffffffffffffffffffffffffffff16639dc29fac33836040518363ffffffff1660e01b8152600401610663929190612237565b600060405180830381600087803b15801561067d57600080fd5b505af1158015610691573d6000803e3d6000fd5b5050505061069d61162b565b33816000019073ffffffffffffffffffffffffffffffffffffffff16908173ffffffffffffffffffffffffffffffffffffffff16815250508281604001819052508181602001818152505060008160600190151590811515815250506001816080019015159081151581525050600081908060018154018082558091505060019003906000526020600020906004020160009091909190915060008201518160000160006101000a81548173ffffffffffffffffffffffffffffffffffffffff021916908373ffffffffffffffffffffffffffffffffffffffff1602179055506020820151816001015560408201518160020190805190602001906107a3929190611674565b5060608201518160030160006101000a81548160ff02191690831515021790555060808201518160030160016101000a81548160ff0219169083151502179055505050505050565b600360009054906101000a900473ffffffffffffffffffffffffffffffffffffffff1673ffffffffffffffffffffffffffffffffffffffff163373ffffffffffffffffffffffffffffffffffffffff161461087b576040517f08c379a000000000000000000000000000000000000000000000000000000000815260040161087290611f57565b60405180910390fd5b80600154106108bf576040517f08c379a00000000000000000000000000000000000000000000000000000000081526004016108b6906122d2565b60405180910390fd5b8060018190555050565b6000606080606080600360009054906101000a900473ffffffffffffffffffffffffffffffffffffffff1673ffffffffffffffffffffffffffffffffffffffff163373ffffffffffffffffffffffffffffffffffffffff1614610961576040517f08c379a000000000000000000000000000000000000000000000000000000000815260040161095890611f57565b60405180910390fd5b6000808054905090506000878261097891906122f2565b9050600081116109bd576040517f08c379a00000000000000000000000000000000000000000000000000000000081526004016109b490612372565b60405180910390fd5b60008167ffffffffffffffff8111156109d9576109d8611741565b5b604051908082528060200260200182016040528015610a0c57816020015b60608152602001906001900390816109f75790505b50905060008267ffffffffffffffff811115610a2b57610a2a611741565b5b604051908082528060200260200182016040528015610a595781602001602082028036833780820191505090505b50905060008367ffffffffffffffff811115610a7857610a77611741565b5b604051908082528060200260200182016040528015610aa65781602001602082028036833780820191505090505b50905060008467ffffffffffffffff811115610ac557610ac4611741565b5b604051908082528060200260200182016040528015610af35781602001602082028036833780820191505090505b50905060005b85811015610c82576000808e83610b109190612392565b81548110610b2157610b20611f77565b5b90600052602060002090600402019050806002018054610b4090612417565b80601f0160208091040260200160405190810160405280929190818152602001828054610b6c90612417565b8015610bb95780601f10610b8e57610100808354040283529160200191610bb9565b820191906000526020600020905b815481529060010190602001808311610b9c57829003601f168201915b5050505050868381518110610bd157610bd0611f77565b5b60200260200101819052508060010154858381518110610bf457610bf3611f77565b5b6020026020010181815250508060030160009054906101000a900460ff16848381518110610c2557610c24611f77565b5b6020026020010190151590811515815250508060030160019054906101000a900460ff16838381518110610c5c57610c5b611f77565b5b602002602001019015159081151581525050508080610c7a90612067565b915050610af9565b508b848484849a509a509a509a509a5050505050505091939590929450565b600360009054906101000a900473ffffffffffffffffffffffffffffffffffffffff1673ffffffffffffffffffffffffffffffffffffffff163373ffffffffffffffffffffffffffffffffffffffff1614610d31576040517f08c379a0000000000000000000000000000000000000000000000000000000008152600401610d2890611f57565b60405180910390fd5b60008151905060008167ffffffffffffffff811115610d5357610d52611741565b5b604051908082528060200260200182016040528015610d815781602001602082028036833780820191505090505b50905060008267ffffffffffffffff811115610da057610d9f611741565b5b604051908082528060200260200182016040528015610dce5781602001602082028036833780820191505090505b50905060005b83811015610f4e57600080868381518110610df257610df1611f77565b5b602002602001015181548110610e0b57610e0a611f77565b5b906000526020600020906004020190508060030160009054906101000a900460ff168015610e4857508060030160019054906101000a900460ff16155b610e87576040517f08c379a0000000000000000000000000000000000000000000000000000000008152600401610e7e90612018565b60405180910390fd5b8060000160009054906101000a900473ffffffffffffffffffffffffffffffffffffffff16848381518110610ebf57610ebe611f77565b5b602002602001019073ffffffffffffffffffffffffffffffffffffffff16908173ffffffffffffffffffffffffffffffffffffffff16815250508060010154838381518110610f1157610f10611f77565b5b60200260200101818152505060018160030160016101000a81548160ff021916908315150217905550508080610f4690612067565b915050610dd4565b50600260009054906101000a900473ffffffffffffffffffffffffffffffffffffffff1673ffffffffffffffffffffffffffffffffffffffff1663ae0b61ba83836040518363ffffffff1660e01b8152600401610fac92919061216e565b600060405180830381600087803b158015610fc657600080fd5b505af1158015610fda573d6000803e3d6000fd5b5050505050505050565b60008111611027576040517f08c379a000000000000000000000000000000000000000000000000000000000815260040161101e90612217565b60405180910390fd5b61102f61162b565b33816000019073ffffffffffffffffffffffffffffffffffffffff16908173ffffffffffffffffffffffffffffffffffffffff16815250508281604001819052508181602001818152505060018160600190151590811515815250506000816080019015159081151581525050600081908060018154018082558091505060019003906000526020600020906004020160009091909190915060008201518160000160006101000a81548173ffffffffffffffffffffffffffffffffffffffff021916908373ffffffffffffffffffffffffffffffffffffffff160217905550602082015181600101556040820151816002019080519060200190611135929190611674565b5060608201518160030160006101000a81548160ff02191690831515021790555060808201518160030160016101000a81548160ff0219169083151502179055505050505050565b6001548110156111c2576040517f08c379a00000000000000000000000000000000000000000000000000000000081526004016111b9906124bb565b60405180910390fd5b60008082815481106111d7576111d6611f77565b5b906000526020600020906004020190508060000160009054906101000a900473ffffffffffffffffffffffffffffffffffffffff1673ffffffffffffffffffffffffffffffffffffffff163373ffffffffffffffffffffffffffffffffffffffff1614611279576040517f08c379a000000000000000000000000000000000000000000000000000000000815260040161127090611f57565b60405180910390fd5b8060030160009054906101000a900460ff161580156112a657508060030160019054906101000a900460ff165b6112e5576040517f08c379a00000000000000000000000000000000000000000000000000000000081526004016112dc9061254d565b60405180910390fd5b60008160030160016101000a81548160ff021916908315150217905550600260009054906101000a900473ffffffffffffffffffffffffffffffffffffffff1673ffffffffffffffffffffffffffffffffffffffff166340c10f198260000160009054906101000a900473ffffffffffffffffffffffffffffffffffffffff1683600101546040518363ffffffff1660e01b8152600401611387929190612237565b600060405180830381600087803b1580156113a157600080fd5b505af11580156113b5573d6000803e3d6000fd5b505050505050565b60006060806060806113d06001546108c9565b945094509450945094509091929394565b606060008060008085815481106113fb576113fa611f77565b5b906000526020600020906004020190508060020181600101548260030160009054906101000a900460ff1682805461143290612417565b80601f016020809104026020016040519081016040528092919081815260200182805461145e90612417565b80156114ab5780601f10611480576101008083540402835291602001916114ab565b820191906000526020600020905b81548152906001019060200180831161148e57829003601f168201915b50505050509250935093509350509193909250565b600360009054906101000a900473ffffffffffffffffffffffffffffffffffffffff1681565b600073ffffffffffffffffffffffffffffffffffffffff16600260009054906101000a900473ffffffffffffffffffffffffffffffffffffffff1673ffffffffffffffffffffffffffffffffffffffff1614611577576040517f08c379a000000000000000000000000000000000000000000000000000000000815260040161156e906125df565b60405180910390fd5b81600260006101000a81548173ffffffffffffffffffffffffffffffffffffffff021916908373ffffffffffffffffffffffffffffffffffffffff16021790555080600360006101000a81548173ffffffffffffffffffffffffffffffffffffffff021916908373ffffffffffffffffffffffffffffffffffffffff16021790555060006001819055505050565b600260009054906101000a900473ffffffffffffffffffffffffffffffffffffffff1681565b6040518060a00160405280600073ffffffffffffffffffffffffffffffffffffffff16815260200160008152602001606081526020016000151581526020016000151581525090565b82805461168090612417565b90600052602060002090601f0160209004810192826116a257600085556116e9565b82601f106116bb57805160ff19168380011785556116e9565b828001600101855582156116e9579182015b828111156116e85782518255916020019190600101906116cd565b5b5090506116f691906116fa565b5090565b5b808211156117135760008160009055506001016116fb565b5090565b6000604051905090565b600080fd5b600080fd5b600080fd5b6000601f19601f8301169050919050565b7f4e487b7100000000000000000000000000000000000000000000000000000000600052604160045260246000fd5b61177982611730565b810181811067ffffffffffffffff8211171561179857611797611741565b5b80604052505050565b60006117ab611717565b90506117b78282611770565b919050565b600067ffffffffffffffff8211156117d7576117d6611741565b5b602082029050602081019050919050565b600080fd5b6000819050919050565b611800816117ed565b811461180b57600080fd5b50565b60008135905061181d816117f7565b92915050565b6000611836611831846117bc565b6117a1565b90508083825260208201905060208402830185811115611859576118586117e8565b5b835b81811015611882578061186e888261180e565b84526020840193505060208101905061185b565b5050509392505050565b600082601f8301126118a1576118a061172b565b5b81356118b1848260208601611823565b91505092915050565b6000602082840312156118d0576118cf611721565b5b600082013567ffffffffffffffff8111156118ee576118ed611726565b5b6118fa8482850161188c565b91505092915050565b61190c816117ed565b82525050565b60006020820190506119276000830184611903565b92915050565b600080fd5b600067ffffffffffffffff82111561194d5761194c611741565b5b61195682611730565b9050602081019050919050565b82818337600083830152505050565b600061198561198084611932565b6117a1565b9050828152602081018484840111156119a1576119a061192d565b5b6119ac848285611963565b509392505050565b600082601f8301126119c9576119c861172b565b5b81356119d9848260208601611972565b91505092915050565b600080604083850312156119f9576119f8611721565b5b600083013567ffffffffffffffff811115611a1757611a16611726565b5b611a23858286016119b4565b9250506020611a348582860161180e565b9150509250929050565b600060208284031215611a5457611a53611721565b5b6000611a628482850161180e565b91505092915050565b600081519050919050565b600082825260208201905092915050565b6000819050602082019050919050565b600081519050919050565b600082825260208201905092915050565b60005b83811015611ad1578082015181840152602081019050611ab6565b83811115611ae0576000848401525b50505050565b6000611af182611a97565b611afb8185611aa2565b9350611b0b818560208601611ab3565b611b1481611730565b840191505092915050565b6000611b2b8383611ae6565b905092915050565b6000602082019050919050565b6000611b4b82611a6b565b611b558185611a76565b935083602082028501611b6785611a87565b8060005b85811015611ba35784840389528151611b848582611b1f565b9450611b8f83611b33565b925060208a01995050600181019050611b6b565b50829750879550505050505092915050565b600081519050919050565b600082825260208201905092915050565b6000819050602082019050919050565b611bea816117ed565b82525050565b6000611bfc8383611be1565b60208301905092915050565b6000602082019050919050565b6000611c2082611bb5565b611c2a8185611bc0565b9350611c3583611bd1565b8060005b83811015611c66578151611c4d8882611bf0565b9750611c5883611c08565b925050600181019050611c39565b5085935050505092915050565b600081519050919050565b600082825260208201905092915050565b6000819050602082019050919050565b60008115159050919050565b611cb481611c9f565b82525050565b6000611cc68383611cab565b60208301905092915050565b6000602082019050919050565b6000611cea82611c73565b611cf48185611c7e565b9350611cff83611c8f565b8060005b83811015611d30578151611d178882611cba565b9750611d2283611cd2565b925050600181019050611d03565b5085935050505092915050565b600060a082019050611d526000830188611903565b8181036020830152611d648187611b40565b90508181036040830152611d788186611c15565b90508181036060830152611d8c8185611cdf565b90508181036080830152611da08184611cdf565b90509695505050505050565b600082825260208201905092915050565b6000611dc882611a97565b611dd28185611dac565b9350611de2818560208601611ab3565b611deb81611730565b840191505092915050565b611dff81611c9f565b82525050565b60006060820190508181036000830152611e1f8186611dbd565b9050611e2e6020830185611903565b611e3b6040830184611df6565b949350505050565b600073ffffffffffffffffffffffffffffffffffffffff82169050919050565b6000611e6e82611e43565b9050919050565b611e7e81611e63565b82525050565b6000602082019050611e996000830184611e75565b92915050565b611ea881611e63565b8114611eb357600080fd5b50565b600081359050611ec581611e9f565b92915050565b60008060408385031215611ee257611ee1611721565b5b6000611ef085828601611eb6565b9250506020611f0185828601611eb6565b9150509250929050565b7f526571756573744d616e616765723a206e6f207065726d697373696f6e000000600082015250565b6000611f41601d83611dac565b9150611f4c82611f0b565b602082019050919050565b60006020820190508181036000830152611f7081611f34565b9050919050565b7f4e487b7100000000000000000000000000000000000000000000000000000000600052603260045260246000fd5b7f526571756573744d616e616765723a2072657175657374207769746820696e7660008201527f616c696420737461746520657869737473000000000000000000000000000000602082015250565b6000612002603183611dac565b915061200d82611fa6565b604082019050919050565b6000602082019050818103600083015261203181611ff5565b9050919050565b7f4e487b7100000000000000000000000000000000000000000000000000000000600052601160045260246000fd5b6000612072826117ed565b91507fffffffffffffffffffffffffffffffffffffffffffffffffffffffffffffffff8214156120a5576120a4612038565b5b600182019050919050565b600081519050919050565b600082825260208201905092915050565b6000819050602082019050919050565b6120e581611e63565b82525050565b60006120f783836120dc565b60208301905092915050565b6000602082019050919050565b600061211b826120b0565b61212581856120bb565b9350612130836120cc565b8060005b8381101561216157815161214888826120eb565b975061215383612103565b925050600181019050612134565b5085935050505092915050565b600060408201905081810360008301526121888185612110565b9050818103602083015261219c8184611c15565b90509392505050565b7f526571756573744d616e616765723a207265717565737420616d6f756e74207360008201527f686f756c64206e6f742062652030000000000000000000000000000000000000602082015250565b6000612201602e83611dac565b915061220c826121a5565b604082019050919050565b60006020820190508181036000830152612230816121f4565b9050919050565b600060408201905061224c6000830185611e75565b6122596020830184611903565b9392505050565b7f526571756573744d616e616765723a20626f6f6b6d61726b2063616e6e6f742060008201527f6265206465637265617365640000000000000000000000000000000000000000602082015250565b60006122bc602c83611dac565b91506122c782612260565b604082019050919050565b600060208201905081810360008301526122eb816122af565b9050919050565b60006122fd826117ed565b9150612308836117ed565b92508282101561231b5761231a612038565b5b828203905092915050565b7f526571756573744d616e616765723a204e6f7468696e6720746f207265616400600082015250565b600061235c601f83611dac565b915061236782612326565b602082019050919050565b6000602082019050818103600083015261238b8161234f565b9050919050565b600061239d826117ed565b91506123a8836117ed565b9250827fffffffffffffffffffffffffffffffffffffffffffffffffffffffffffffffff038211156123dd576123dc612038565b5b828201905092915050565b7f4e487b7100000000000000000000000000000000000000000000000000000000600052602260045260246000fd5b6000600282049050600182168061242f57607f821691505b60208210811415612443576124426123e8565b5b50919050565b7f526571756573744d616e616765723a207265717565737420697320616c72656160008201527f6479207265616400000000000000000000000000000000000000000000000000602082015250565b60006124a5602783611dac565b91506124b082612449565b604082019050919050565b600060208201905081810360008301526124d481612498565b9050919050565b7f526571756573744d616e616765723a20696e76616c696420726571756573742060008201527f7374617465000000000000000000000000000000000000000000000000000000602082015250565b6000612537602583611dac565b9150612542826124db565b604082019050919050565b600060208201905081810360008301526125668161252a565b9050919050565b7f526571756573744d616e616765723a20616c726561647920696e697469616c6960008201527f7a65640000000000000000000000000000000000000000000000000000000000602082015250565b60006125c9602383611dac565b91506125d48261256d565b604082019050919050565b600060208201905081810360008301526125f8816125bc565b905091905056fea2646970667358221220d818db0a8d9b716cc8f9feb14fcf94a669418fcb006b91fbdc5e47a80b61ca0964736f6c63430008090033",
  "immutableReferences": {},
  "source": "// SPDX-License-Identifier: MIT\npragma solidity ^0.8.0;\n\nimport './ERC20Example.sol';\nimport './Request.sol';\nimport '@openzeppelin/contracts/proxy/Clones.sol';\n\n// clone factory for tokens & corresponding request managers\ncontract Factory {\n\n    // zero index elements are library for clones\n    address[] public tokens;\n    address[] public requests;\n\n    constructor() {\n        address token = address(new ERC20Example(\"ZeroIndexToken\", \"ZIT\"));\n        address request = address(new RequestManager());\n        tokens.push(token);\n        requests.push(request);\n    }\n\n    function createToken(string memory name, string memory symbol, uint8 decimals) public {\n        address token = Clones.clone(tokens[0]);\n        address request = Clones.clone(requests[0]);\n        ERC20Example(token).init(name, symbol, decimals, request);\n        RequestManager(request).init(token, msg.sender);\n        tokens.push(token);\n        requests.push(request);\n    }\n\n    function getTokenAddress(uint256 idx) public view returns (address token) {\n        token = tokens[idx];\n    }\n\n    function getRequestAddress(uint256 idx) public view returns (address request) {\n        request = requests[idx];\n    }\n\n}",
  "sourcePath": "/Users/bagdongho/Desktop/web3-tutorials/WEB3-TUTORIAL/truffle/contracts/Factory.sol",
  "compiler": {
    "name": "solc",
    "version": "0.8.9+commit.e5eed63a.Emscripten.clang"
  },
  "schemaVersion": "3.4.7",
  "updatedAt": "2022-06-08T12:22:57.641Z",
  "devdoc": {
    "kind": "dev",
    "methods": {},
    "version": 1
  },
  "userdoc": {
    "kind": "user",
    "methods": {},
    "version": 1
  }
}