{
  "contractName": "RequestManager",
  "abi": [
    {
      "inputs": [],
      "name": "bookmark",
      "outputs": [
        {
          "internalType": "uint256",
          "name": "",
          "type": "uint256"
        }
      ],
      "stateMutability": "view",
      "type": "function"
    },
    {
      "inputs": [],
      "name": "gameManager",
      "outputs": [
        {
          "internalType": "address",
          "name": "",
          "type": "address"
        }
      ],
      "stateMutability": "view",
      "type": "function"
    },
    {
      "inputs": [],
      "name": "token",
      "outputs": [
        {
          "internalType": "address",
          "name": "",
          "type": "address"
        }
      ],
      "stateMutability": "view",
      "type": "function"
    },
    {
      "inputs": [
        {
          "internalType": "address",
          "name": "_token",
          "type": "address"
        },
        {
          "internalType": "address",
          "name": "_gameManager",
          "type": "address"
        }
      ],
      "name": "init",
      "outputs": [],
      "stateMutability": "nonpayable",
      "type": "function"
    },
    {
      "inputs": [
        {
          "internalType": "string",
          "name": "_gameID",
          "type": "string"
        },
        {
          "internalType": "uint256",
          "name": "_amount",
          "type": "uint256"
        }
      ],
      "name": "requestMint",
      "outputs": [],
      "stateMutability": "nonpayable",
      "type": "function"
    },
    {
      "inputs": [
        {
          "internalType": "string",
          "name": "_gameID",
          "type": "string"
        },
        {
          "internalType": "uint256",
          "name": "_amount",
          "type": "uint256"
        }
      ],
      "name": "requestBurn",
      "outputs": [],
      "stateMutability": "nonpayable",
      "type": "function"
    },
    {
      "inputs": [
        {
          "internalType": "uint256",
          "name": "index",
          "type": "uint256"
        }
      ],
      "name": "getRequest",
      "outputs": [
        {
          "internalType": "string",
          "name": "",
          "type": "string"
        },
        {
          "internalType": "uint256",
          "name": "",
          "type": "uint256"
        },
        {
          "internalType": "bool",
          "name": "",
          "type": "bool"
        }
      ],
      "stateMutability": "view",
      "type": "function"
    },
    {
      "inputs": [],
      "name": "read",
      "outputs": [
        {
          "internalType": "uint256",
          "name": "",
          "type": "uint256"
        },
        {
          "internalType": "string[]",
          "name": "",
          "type": "string[]"
        },
        {
          "internalType": "uint256[]",
          "name": "",
          "type": "uint256[]"
        },
        {
          "internalType": "bool[]",
          "name": "",
          "type": "bool[]"
        },
        {
          "internalType": "bool[]",
          "name": "",
          "type": "bool[]"
        }
      ],
      "stateMutability": "view",
      "type": "function"
    },
    {
      "inputs": [
        {
          "internalType": "uint256",
          "name": "first",
          "type": "uint256"
        }
      ],
      "name": "readFrom",
      "outputs": [
        {
          "internalType": "uint256",
          "name": "",
          "type": "uint256"
        },
        {
          "internalType": "string[]",
          "name": "",
          "type": "string[]"
        },
        {
          "internalType": "uint256[]",
          "name": "",
          "type": "uint256[]"
        },
        {
          "internalType": "bool[]",
          "name": "",
          "type": "bool[]"
        },
        {
          "internalType": "bool[]",
          "name": "",
          "type": "bool[]"
        }
      ],
      "stateMutability": "view",
      "type": "function"
    },
    {
      "inputs": [
        {
          "internalType": "uint256",
          "name": "newBookmark",
          "type": "uint256"
        }
      ],
      "name": "updateBookmark",
      "outputs": [],
      "stateMutability": "nonpayable",
      "type": "function"
    },
    {
      "inputs": [
        {
          "internalType": "uint256[]",
          "name": "mintRequestIDs",
          "type": "uint256[]"
        }
      ],
      "name": "accept",
      "outputs": [],
      "stateMutability": "nonpayable",
      "type": "function"
    },
    {
      "inputs": [
        {
          "internalType": "uint256[]",
          "name": "burnRequestIDs",
          "type": "uint256[]"
        }
      ],
      "name": "reject",
      "outputs": [],
      "stateMutability": "nonpayable",
      "type": "function"
    },
    {
      "inputs": [
        {
          "internalType": "uint256",
          "name": "index",
          "type": "uint256"
        }
      ],
      "name": "retreive",
      "outputs": [],
      "stateMutability": "nonpayable",
      "type": "function"
    }
  ],
  "bytecode": "0x608060405234801561001057600080fd5b50612635806100206000396000f3fe608060405234801561001057600080fd5b50600436106100cf5760003560e01c80634a4062881161008c578063c58343ef11610066578063c58343ef146101f0578063c6b0526614610222578063f09a401614610240578063fc0c546a1461025c576100cf565b80634a406288146101965780635553afb6146101b257806357de26a4146101ce576100cf565b80630926c69c146100d45780630d219c4c146100f057806328b2ca551461010e578063340722ae1461012a5780633463aa9b1461014657806346f3bec01461017a575b600080fd5b6100ee60048036038101906100e991906118ba565b61027a565b005b6100f86105bd565b6040516101059190611912565b60405180910390f35b610128600480360381019061012391906119e2565b6105c3565b005b610144600480360381019061013f9190611a3e565b6107eb565b005b610160600480360381019061015b9190611a3e565b6108c9565b604051610171959493929190611d3d565b60405180910390f35b610194600480360381019061018f91906118ba565b610ca1565b005b6101b060048036038101906101ab91906119e2565b610fe4565b005b6101cc60048036038101906101c79190611a3e565b61117d565b005b6101d66113bd565b6040516101e7959493929190611d3d565b60405180910390f35b61020a60048036038101906102059190611a3e565b6113e1565b60405161021993929190611e05565b60405180910390f35b61022a6114c0565b6040516102379190611e84565b60405180910390f35b61025a60048036038101906102559190611ecb565b6114e6565b005b610264611605565b6040516102719190611e84565b60405180910390f35b600360009054906101000a900473ffffffffffffffffffffffffffffffffffffffff1673ffffffffffffffffffffffffffffffffffffffff163373ffffffffffffffffffffffffffffffffffffffff161461030a576040517f08c379a000000000000000000000000000000000000000000000000000000000815260040161030190611f57565b60405180910390fd5b60008151905060008167ffffffffffffffff81111561032c5761032b611741565b5b60405190808252806020026020018201604052801561035a5781602001602082028036833780820191505090505b50905060008267ffffffffffffffff81111561037957610378611741565b5b6040519080825280602002602001820160405280156103a75781602001602082028036833780820191505090505b50905060005b83811015610527576000808683815181106103cb576103ca611f77565b5b6020026020010151815481106103e4576103e3611f77565b5b906000526020600020906004020190508060030160009054906101000a900460ff1615801561042157508060030160019054906101000a900460ff165b610460576040517f08c379a000000000000000000000000000000000000000000000000000000000815260040161045790612018565b60405180910390fd5b8060000160009054906101000a900473ffffffffffffffffffffffffffffffffffffffff1684838151811061049857610497611f77565b5b602002602001019073ffffffffffffffffffffffffffffffffffffffff16908173ffffffffffffffffffffffffffffffffffffffff168152505080600101548383815181106104ea576104e9611f77565b5b60200260200101818152505060008160030160016101000a81548160ff02191690831515021790555050808061051f90612067565b9150506103ad565b50600260009054906101000a900473ffffffffffffffffffffffffffffffffffffffff1673ffffffffffffffffffffffffffffffffffffffff1663ae0b61ba83836040518363ffffffff1660e01b815260040161058592919061216e565b600060405180830381600087803b15801561059f57600080fd5b505af11580156105b3573d6000803e3d6000fd5b5050505050505050565b60015481565b60008111610606576040517f08c379a00000000000000000000000000000000000000000000000000000000081526004016105fd90612217565b60405180910390fd5b600260009054906101000a900473ffffffffffffffffffffffffffffffffffffffff1673ffffffffffffffffffffffffffffffffffffffff16639dc29fac33836040518363ffffffff1660e01b8152600401610663929190612237565b600060405180830381600087803b15801561067d57600080fd5b505af1158015610691573d6000803e3d6000fd5b5050505061069d61162b565b33816000019073ffffffffffffffffffffffffffffffffffffffff16908173ffffffffffffffffffffffffffffffffffffffff16815250508281604001819052508181602001818152505060008160600190151590811515815250506001816080019015159081151581525050600081908060018154018082558091505060019003906000526020600020906004020160009091909190915060008201518160000160006101000a81548173ffffffffffffffffffffffffffffffffffffffff021916908373ffffffffffffffffffffffffffffffffffffffff1602179055506020820151816001015560408201518160020190805190602001906107a3929190611674565b5060608201518160030160006101000a81548160ff02191690831515021790555060808201518160030160016101000a81548160ff0219169083151502179055505050505050565b600360009054906101000a900473ffffffffffffffffffffffffffffffffffffffff1673ffffffffffffffffffffffffffffffffffffffff163373ffffffffffffffffffffffffffffffffffffffff161461087b576040517f08c379a000000000000000000000000000000000000000000000000000000000815260040161087290611f57565b60405180910390fd5b80600154106108bf576040517f08c379a00000000000000000000000000000000000000000000000000000000081526004016108b6906122d2565b60405180910390fd5b8060018190555050565b6000606080606080600360009054906101000a900473ffffffffffffffffffffffffffffffffffffffff1673ffffffffffffffffffffffffffffffffffffffff163373ffffffffffffffffffffffffffffffffffffffff1614610961576040517f08c379a000000000000000000000000000000000000000000000000000000000815260040161095890611f57565b60405180910390fd5b6000808054905090506000878261097891906122f2565b9050600081116109bd576040517f08c379a00000000000000000000000000000000000000000000000000000000081526004016109b490612372565b60405180910390fd5b60008167ffffffffffffffff8111156109d9576109d8611741565b5b604051908082528060200260200182016040528015610a0c57816020015b60608152602001906001900390816109f75790505b50905060008267ffffffffffffffff811115610a2b57610a2a611741565b5b604051908082528060200260200182016040528015610a595781602001602082028036833780820191505090505b50905060008367ffffffffffffffff811115610a7857610a77611741565b5b604051908082528060200260200182016040528015610aa65781602001602082028036833780820191505090505b50905060008467ffffffffffffffff811115610ac557610ac4611741565b5b604051908082528060200260200182016040528015610af35781602001602082028036833780820191505090505b50905060005b85811015610c82576000808e83610b109190612392565b81548110610b2157610b20611f77565b5b90600052602060002090600402019050806002018054610b4090612417565b80601f0160208091040260200160405190810160405280929190818152602001828054610b6c90612417565b8015610bb95780601f10610b8e57610100808354040283529160200191610bb9565b820191906000526020600020905b815481529060010190602001808311610b9c57829003601f168201915b5050505050868381518110610bd157610bd0611f77565b5b60200260200101819052508060010154858381518110610bf457610bf3611f77565b5b6020026020010181815250508060030160009054906101000a900460ff16848381518110610c2557610c24611f77565b5b6020026020010190151590811515815250508060030160019054906101000a900460ff16838381518110610c5c57610c5b611f77565b5b602002602001019015159081151581525050508080610c7a90612067565b915050610af9565b508b848484849a509a509a509a509a5050505050505091939590929450565b600360009054906101000a900473ffffffffffffffffffffffffffffffffffffffff1673ffffffffffffffffffffffffffffffffffffffff163373ffffffffffffffffffffffffffffffffffffffff1614610d31576040517f08c379a0000000000000000000000000000000000000000000000000000000008152600401610d2890611f57565b60405180910390fd5b60008151905060008167ffffffffffffffff811115610d5357610d52611741565b5b604051908082528060200260200182016040528015610d815781602001602082028036833780820191505090505b50905060008267ffffffffffffffff811115610da057610d9f611741565b5b604051908082528060200260200182016040528015610dce5781602001602082028036833780820191505090505b50905060005b83811015610f4e57600080868381518110610df257610df1611f77565b5b602002602001015181548110610e0b57610e0a611f77565b5b906000526020600020906004020190508060030160009054906101000a900460ff168015610e4857508060030160019054906101000a900460ff16155b610e87576040517f08c379a0000000000000000000000000000000000000000000000000000000008152600401610e7e90612018565b60405180910390fd5b8060000160009054906101000a900473ffffffffffffffffffffffffffffffffffffffff16848381518110610ebf57610ebe611f77565b5b602002602001019073ffffffffffffffffffffffffffffffffffffffff16908173ffffffffffffffffffffffffffffffffffffffff16815250508060010154838381518110610f1157610f10611f77565b5b60200260200101818152505060018160030160016101000a81548160ff021916908315150217905550508080610f4690612067565b915050610dd4565b50600260009054906101000a900473ffffffffffffffffffffffffffffffffffffffff1673ffffffffffffffffffffffffffffffffffffffff1663ae0b61ba83836040518363ffffffff1660e01b8152600401610fac92919061216e565b600060405180830381600087803b158015610fc657600080fd5b505af1158015610fda573d6000803e3d6000fd5b5050505050505050565b60008111611027576040517f08c379a000000000000000000000000000000000000000000000000000000000815260040161101e90612217565b60405180910390fd5b61102f61162b565b33816000019073ffffffffffffffffffffffffffffffffffffffff16908173ffffffffffffffffffffffffffffffffffffffff16815250508281604001819052508181602001818152505060018160600190151590811515815250506000816080019015159081151581525050600081908060018154018082558091505060019003906000526020600020906004020160009091909190915060008201518160000160006101000a81548173ffffffffffffffffffffffffffffffffffffffff021916908373ffffffffffffffffffffffffffffffffffffffff160217905550602082015181600101556040820151816002019080519060200190611135929190611674565b5060608201518160030160006101000a81548160ff02191690831515021790555060808201518160030160016101000a81548160ff0219169083151502179055505050505050565b6001548110156111c2576040517f08c379a00000000000000000000000000000000000000000000000000000000081526004016111b9906124bb565b60405180910390fd5b60008082815481106111d7576111d6611f77565b5b906000526020600020906004020190508060000160009054906101000a900473ffffffffffffffffffffffffffffffffffffffff1673ffffffffffffffffffffffffffffffffffffffff163373ffffffffffffffffffffffffffffffffffffffff1614611279576040517f08c379a000000000000000000000000000000000000000000000000000000000815260040161127090611f57565b60405180910390fd5b8060030160009054906101000a900460ff161580156112a657508060030160019054906101000a900460ff165b6112e5576040517f08c379a00000000000000000000000000000000000000000000000000000000081526004016112dc9061254d565b60405180910390fd5b60008160030160016101000a81548160ff021916908315150217905550600260009054906101000a900473ffffffffffffffffffffffffffffffffffffffff1673ffffffffffffffffffffffffffffffffffffffff166340c10f198260000160009054906101000a900473ffffffffffffffffffffffffffffffffffffffff1683600101546040518363ffffffff1660e01b8152600401611387929190612237565b600060405180830381600087803b1580156113a157600080fd5b505af11580156113b5573d6000803e3d6000fd5b505050505050565b60006060806060806113d06001546108c9565b945094509450945094509091929394565b606060008060008085815481106113fb576113fa611f77565b5b906000526020600020906004020190508060020181600101548260030160009054906101000a900460ff1682805461143290612417565b80601f016020809104026020016040519081016040528092919081815260200182805461145e90612417565b80156114ab5780601f10611480576101008083540402835291602001916114ab565b820191906000526020600020905b81548152906001019060200180831161148e57829003601f168201915b50505050509250935093509350509193909250565b600360009054906101000a900473ffffffffffffffffffffffffffffffffffffffff1681565b600073ffffffffffffffffffffffffffffffffffffffff16600260009054906101000a900473ffffffffffffffffffffffffffffffffffffffff1673ffffffffffffffffffffffffffffffffffffffff1614611577576040517f08c379a000000000000000000000000000000000000000000000000000000000815260040161156e906125df565b60405180910390fd5b81600260006101000a81548173ffffffffffffffffffffffffffffffffffffffff021916908373ffffffffffffffffffffffffffffffffffffffff16021790555080600360006101000a81548173ffffffffffffffffffffffffffffffffffffffff021916908373ffffffffffffffffffffffffffffffffffffffff16021790555060006001819055505050565b600260009054906101000a900473ffffffffffffffffffffffffffffffffffffffff1681565b6040518060a00160405280600073ffffffffffffffffffffffffffffffffffffffff16815260200160008152602001606081526020016000151581526020016000151581525090565b82805461168090612417565b90600052602060002090601f0160209004810192826116a257600085556116e9565b82601f106116bb57805160ff19168380011785556116e9565b828001600101855582156116e9579182015b828111156116e85782518255916020019190600101906116cd565b5b5090506116f691906116fa565b5090565b5b808211156117135760008160009055506001016116fb565b5090565b6000604051905090565b600080fd5b600080fd5b600080fd5b6000601f19601f8301169050919050565b7f4e487b7100000000000000000000000000000000000000000000000000000000600052604160045260246000fd5b61177982611730565b810181811067ffffffffffffffff8211171561179857611797611741565b5b80604052505050565b60006117ab611717565b90506117b78282611770565b919050565b600067ffffffffffffffff8211156117d7576117d6611741565b5b602082029050602081019050919050565b600080fd5b6000819050919050565b611800816117ed565b811461180b57600080fd5b50565b60008135905061181d816117f7565b92915050565b6000611836611831846117bc565b6117a1565b90508083825260208201905060208402830185811115611859576118586117e8565b5b835b81811015611882578061186e888261180e565b84526020840193505060208101905061185b565b5050509392505050565b600082601f8301126118a1576118a061172b565b5b81356118b1848260208601611823565b91505092915050565b6000602082840312156118d0576118cf611721565b5b600082013567ffffffffffffffff8111156118ee576118ed611726565b5b6118fa8482850161188c565b91505092915050565b61190c816117ed565b82525050565b60006020820190506119276000830184611903565b92915050565b600080fd5b600067ffffffffffffffff82111561194d5761194c611741565b5b61195682611730565b9050602081019050919050565b82818337600083830152505050565b600061198561198084611932565b6117a1565b9050828152602081018484840111156119a1576119a061192d565b5b6119ac848285611963565b509392505050565b600082601f8301126119c9576119c861172b565b5b81356119d9848260208601611972565b91505092915050565b600080604083850312156119f9576119f8611721565b5b600083013567ffffffffffffffff811115611a1757611a16611726565b5b611a23858286016119b4565b9250506020611a348582860161180e565b9150509250929050565b600060208284031215611a5457611a53611721565b5b6000611a628482850161180e565b91505092915050565b600081519050919050565b600082825260208201905092915050565b6000819050602082019050919050565b600081519050919050565b600082825260208201905092915050565b60005b83811015611ad1578082015181840152602081019050611ab6565b83811115611ae0576000848401525b50505050565b6000611af182611a97565b611afb8185611aa2565b9350611b0b818560208601611ab3565b611b1481611730565b840191505092915050565b6000611b2b8383611ae6565b905092915050565b6000602082019050919050565b6000611b4b82611a6b565b611b558185611a76565b935083602082028501611b6785611a87565b8060005b85811015611ba35784840389528151611b848582611b1f565b9450611b8f83611b33565b925060208a01995050600181019050611b6b565b50829750879550505050505092915050565b600081519050919050565b600082825260208201905092915050565b6000819050602082019050919050565b611bea816117ed565b82525050565b6000611bfc8383611be1565b60208301905092915050565b6000602082019050919050565b6000611c2082611bb5565b611c2a8185611bc0565b9350611c3583611bd1565b8060005b83811015611c66578151611c4d8882611bf0565b9750611c5883611c08565b925050600181019050611c39565b5085935050505092915050565b600081519050919050565b600082825260208201905092915050565b6000819050602082019050919050565b60008115159050919050565b611cb481611c9f565b82525050565b6000611cc68383611cab565b60208301905092915050565b6000602082019050919050565b6000611cea82611c73565b611cf48185611c7e565b9350611cff83611c8f565b8060005b83811015611d30578151611d178882611cba565b9750611d2283611cd2565b925050600181019050611d03565b5085935050505092915050565b600060a082019050611d526000830188611903565b8181036020830152611d648187611b40565b90508181036040830152611d788186611c15565b90508181036060830152611d8c8185611cdf565b90508181036080830152611da08184611cdf565b90509695505050505050565b600082825260208201905092915050565b6000611dc882611a97565b611dd28185611dac565b9350611de2818560208601611ab3565b611deb81611730565b840191505092915050565b611dff81611c9f565b82525050565b60006060820190508181036000830152611e1f8186611dbd565b9050611e2e6020830185611903565b611e3b6040830184611df6565b949350505050565b600073ffffffffffffffffffffffffffffffffffffffff82169050919050565b6000611e6e82611e43565b9050919050565b611e7e81611e63565b82525050565b6000602082019050611e996000830184611e75565b92915050565b611ea881611e63565b8114611eb357600080fd5b50565b600081359050611ec581611e9f565b92915050565b60008060408385031215611ee257611ee1611721565b5b6000611ef085828601611eb6565b9250506020611f0185828601611eb6565b9150509250929050565b7f526571756573744d616e616765723a206e6f207065726d697373696f6e000000600082015250565b6000611f41601d83611dac565b9150611f4c82611f0b565b602082019050919050565b60006020820190508181036000830152611f7081611f34565b9050919050565b7f4e487b7100000000000000000000000000000000000000000000000000000000600052603260045260246000fd5b7f526571756573744d616e616765723a2072657175657374207769746820696e7660008201527f616c696420737461746520657869737473000000000000000000000000000000602082015250565b6000612002603183611dac565b915061200d82611fa6565b604082019050919050565b6000602082019050818103600083015261203181611ff5565b9050919050565b7f4e487b7100000000000000000000000000000000000000000000000000000000600052601160045260246000fd5b6000612072826117ed565b91507fffffffffffffffffffffffffffffffffffffffffffffffffffffffffffffffff8214156120a5576120a4612038565b5b600182019050919050565b600081519050919050565b600082825260208201905092915050565b6000819050602082019050919050565b6120e581611e63565b82525050565b60006120f783836120dc565b60208301905092915050565b6000602082019050919050565b600061211b826120b0565b61212581856120bb565b9350612130836120cc565b8060005b8381101561216157815161214888826120eb565b975061215383612103565b925050600181019050612134565b5085935050505092915050565b600060408201905081810360008301526121888185612110565b9050818103602083015261219c8184611c15565b90509392505050565b7f526571756573744d616e616765723a207265717565737420616d6f756e74207360008201527f686f756c64206e6f742062652030000000000000000000000000000000000000602082015250565b6000612201602e83611dac565b915061220c826121a5565b604082019050919050565b60006020820190508181036000830152612230816121f4565b9050919050565b600060408201905061224c6000830185611e75565b6122596020830184611903565b9392505050565b7f526571756573744d616e616765723a20626f6f6b6d61726b2063616e6e6f742060008201527f6265206465637265617365640000000000000000000000000000000000000000602082015250565b60006122bc602c83611dac565b91506122c782612260565b604082019050919050565b600060208201905081810360008301526122eb816122af565b9050919050565b60006122fd826117ed565b9150612308836117ed565b92508282101561231b5761231a612038565b5b828203905092915050565b7f526571756573744d616e616765723a204e6f7468696e6720746f207265616400600082015250565b600061235c601f83611dac565b915061236782612326565b602082019050919050565b6000602082019050818103600083015261238b8161234f565b9050919050565b600061239d826117ed565b91506123a8836117ed565b9250827fffffffffffffffffffffffffffffffffffffffffffffffffffffffffffffffff038211156123dd576123dc612038565b5b828201905092915050565b7f4e487b7100000000000000000000000000000000000000000000000000000000600052602260045260246000fd5b6000600282049050600182168061242f57607f821691505b60208210811415612443576124426123e8565b5b50919050565b7f526571756573744d616e616765723a207265717565737420697320616c72656160008201527f6479207265616400000000000000000000000000000000000000000000000000602082015250565b60006124a5602783611dac565b91506124b082612449565b604082019050919050565b600060208201905081810360008301526124d481612498565b9050919050565b7f526571756573744d616e616765723a20696e76616c696420726571756573742060008201527f7374617465000000000000000000000000000000000000000000000000000000602082015250565b6000612537602583611dac565b9150612542826124db565b604082019050919050565b600060208201905081810360008301526125668161252a565b9050919050565b7f526571756573744d616e616765723a20616c726561647920696e697469616c6960008201527f7a65640000000000000000000000000000000000000000000000000000000000602082015250565b60006125c9602383611dac565b91506125d48261256d565b604082019050919050565b600060208201905081810360008301526125f8816125bc565b905091905056fea2646970667358221220d818db0a8d9b716cc8f9feb14fcf94a669418fcb006b91fbdc5e47a80b61ca0964736f6c63430008090033",
  "immutableReferences": {},
  "source": "// SPDX-License-Identifier: MIT\npragma solidity ^0.8.0;\n\nimport './ERC20Example.sol';\n\ncontract RequestManager {\n    struct Request {\n        address owner;\n        uint256 amount;\n        string gameID;\n        bool mint;\n        bool valid;\n    }\n\n    Request[] private requests;\n    uint256 public bookmark; // next index of request array to continue reading\n\n    address public token;\n    address public gameManager;\n\n    function init(address _token, address _gameManager) public virtual {\n        require(token == address(0), \"RequestManager: already initialized\");\n        token = _token;\n        gameManager = _gameManager;\n        bookmark = 0;\n    }\n\n    // make request for exchanging from game currency to corresponding token\n    function requestMint(string memory _gameID, uint256 _amount) public {\n        require(_amount > 0, \"RequestManager: request amount should not be 0\");\n\n        Request memory request;\n        request.owner = msg.sender;\n        request.gameID = _gameID;\n        request.amount = _amount;\n        request.mint = true;\n        request.valid = false;\n\n        requests.push(request);\n    }\n\n    // make request for exchanging from token to coreesponding game currency\n    function requestBurn(string memory _gameID, uint256 _amount) public {\n        require(_amount > 0, \"RequestManager: request amount should not be 0\");\n        ERC20Example(token).burn(msg.sender, _amount);\n\n        Request memory request;\n        request.owner = msg.sender;\n        request.gameID = _gameID;\n        request.amount = _amount;\n        request.mint = false;\n        request.valid = true;\n\n        requests.push(request);\n    }\n\n    // fetch info of request of given index\n    function getRequest(uint256 index) public view returns (string memory, uint256, bool) {\n        Request storage request = requests[index];\n        return (request.gameID, request.amount, request.mint);\n    }\n\n    // fetch info of unread requests\n    function read() public view returns (uint256, string[] memory, uint256[] memory, bool[] memory, bool[] memory) {\n        return readFrom(bookmark);\n    }\n\n    // fetch unread info from given first index\n    function readFrom(uint256 first) public view returns (uint256, string[] memory, uint256[] memory, bool[] memory, bool[] memory) {\n        require(msg.sender == gameManager, \"RequestManager: no permission\");\n        uint256 len = requests.length;\n        uint256 cnt = len - first;\n        require(cnt > 0, \"RequestManager: Nothing to read\");\n\n        string[] memory gameID_ = new string[](cnt);\n        uint256[] memory amount_ = new uint256[](cnt);\n        bool[] memory mint_ = new bool[](cnt);\n        bool[] memory valid_ = new bool[](cnt);\n\n        for (uint256 i = 0; i < cnt; i++) {\n            Request storage request = requests[i + first];\n            gameID_[i] = request.gameID;\n            amount_[i] = request.amount;\n            mint_[i] = request.mint;\n            valid_[i] = request.valid;\n        }\n\n        return (first, gameID_, amount_, mint_, valid_);\n    }\n\n    // must updated after reading infos of requests until new bookmark\n    function updateBookmark(uint256 newBookmark) public {\n        require(msg.sender == gameManager, \"RequestManager: no permission\");\n        require(bookmark < newBookmark, \"RequestManager: bookmark cannot be decreased\");\n        bookmark = newBookmark;\n    }\n\n    // accept valid mint requests\n    // param mintReqeustIDs contains indices of requests array to accept\n    function accept(uint256[] memory mintRequestIDs) public {\n        require(msg.sender == gameManager, \"RequestManager: no permission\");\n\n        uint256 cnt = mintRequestIDs.length;\n        address[] memory receivers = new address[](cnt);\n        uint256[] memory amounts = new uint256[](cnt);\n\n        for(uint256 i = 0; i < cnt; i++) {\n            Request storage request = requests[mintRequestIDs[i]];\n            require(request.mint && !request.valid, \"RequestManager: request with invalid state exists\");\n\n            receivers[i] = request.owner;\n            amounts[i] = request.amount;\n\n            request.valid = true;\n        }\n\n        ERC20Example(token).mintAll(receivers, amounts);\n    }\n\n    // reject invalid burn requests\n    // param burnRequestIDs contains indices of requests array to reject\n    function reject(uint256[] memory burnRequestIDs) public {\n        require(msg.sender == gameManager, \"RequestManager: no permission\");\n\n        uint256 cnt = burnRequestIDs.length;\n        address[] memory receivers = new address[](cnt);\n        uint256[] memory amounts = new uint256[](cnt);\n\n        for(uint i = 0; i < cnt; i++) {\n            Request storage request = requests[burnRequestIDs[i]];\n            require(!request.mint && request.valid, \"RequestManager: request with invalid state exists\");\n\n            receivers[i] = request.owner;\n            amounts[i] = request.amount;\n\n            request.valid = false;\n        }\n\n        ERC20Example(token).mintAll(receivers, amounts);\n    }\n\n    // retrieve unread burn request\n    function retreive(uint256 index) public {\n        require(index >= bookmark, \"RequestManager: request is already read\");\n        Request storage request = requests[index];\n        require(msg.sender == request.owner, \"RequestManager: no permission\");\n        require(!request.mint && request.valid, \"RequestManager: invalid request state\");\n\n        request.valid = false;\n        ERC20Example(token).mint(request.owner, request.amount);\n    }\n\n}",
  "sourcePath": "/Users/bagdongho/Desktop/web3-tutorials/WEB3-TUTORIAL/truffle/contracts/Request.sol",
  "compiler": {
    "name": "solc",
    "version": "0.8.9+commit.e5eed63a.Emscripten.clang"
  },
  "schemaVersion": "3.4.7",
  "updatedAt": "2022-06-08T12:22:57.642Z",
  "devdoc": {
    "kind": "dev",
    "methods": {},
    "version": 1
  },
  "userdoc": {
    "kind": "user",
    "methods": {},
    "version": 1
  }
}