{
  "contractName": "RequestManager",
  "abi": [
    {
      "anonymous": false,
      "inputs": [
        {
          "indexed": false,
          "internalType": "uint256[]",
          "name": "requestIndices",
          "type": "uint256[]"
        },
        {
          "indexed": false,
          "internalType": "address[]",
          "name": "owners",
          "type": "address[]"
        }
      ],
      "name": "BurnRequestRejected",
      "type": "event"
    },
    {
      "anonymous": false,
      "inputs": [
        {
          "indexed": true,
          "internalType": "uint256",
          "name": "requestIndex",
          "type": "uint256"
        },
        {
          "indexed": true,
          "internalType": "address",
          "name": "owner",
          "type": "address"
        },
        {
          "indexed": false,
          "internalType": "uint256",
          "name": "amount",
          "type": "uint256"
        }
      ],
      "name": "BurnRequestRetrieved",
      "type": "event"
    },
    {
      "anonymous": false,
      "inputs": [
        {
          "indexed": false,
          "internalType": "uint256[]",
          "name": "requestIndices",
          "type": "uint256[]"
        },
        {
          "indexed": false,
          "internalType": "address[]",
          "name": "owners",
          "type": "address[]"
        }
      ],
      "name": "MintRequestAccepted",
      "type": "event"
    },
    {
      "anonymous": false,
      "inputs": [
        {
          "indexed": true,
          "internalType": "uint256",
          "name": "requestIndex",
          "type": "uint256"
        },
        {
          "indexed": true,
          "internalType": "address",
          "name": "owner",
          "type": "address"
        },
        {
          "indexed": false,
          "internalType": "string",
          "name": "gameID",
          "type": "string"
        },
        {
          "indexed": false,
          "internalType": "uint256",
          "name": "amount",
          "type": "uint256"
        },
        {
          "indexed": false,
          "internalType": "bool",
          "name": "mint",
          "type": "bool"
        }
      ],
      "name": "RequestCreated",
      "type": "event"
    },
    {
      "inputs": [],
      "name": "bookmark",
      "outputs": [
        {
          "internalType": "uint256",
          "name": "",
          "type": "uint256"
        }
      ],
      "stateMutability": "view",
      "type": "function"
    },
    {
      "inputs": [],
      "name": "gameManager",
      "outputs": [
        {
          "internalType": "address",
          "name": "",
          "type": "address"
        }
      ],
      "stateMutability": "view",
      "type": "function"
    },
    {
      "inputs": [],
      "name": "token",
      "outputs": [
        {
          "internalType": "address",
          "name": "",
          "type": "address"
        }
      ],
      "stateMutability": "view",
      "type": "function"
    },
    {
      "inputs": [
        {
          "internalType": "address",
          "name": "_token",
          "type": "address"
        },
        {
          "internalType": "address",
          "name": "_gameManager",
          "type": "address"
        }
      ],
      "name": "init",
      "outputs": [],
      "stateMutability": "nonpayable",
      "type": "function"
    },
    {
      "inputs": [],
      "name": "getGameID",
      "outputs": [
        {
          "internalType": "string",
          "name": "",
          "type": "string"
        }
      ],
      "stateMutability": "view",
      "type": "function"
    },
    {
      "inputs": [
        {
          "internalType": "uint256",
          "name": "_amount",
          "type": "uint256"
        }
      ],
      "name": "requestMint",
      "outputs": [],
      "stateMutability": "nonpayable",
      "type": "function"
    },
    {
      "inputs": [
        {
          "internalType": "string",
          "name": "_gameID",
          "type": "string"
        },
        {
          "internalType": "uint256",
          "name": "_amount",
          "type": "uint256"
        }
      ],
      "name": "setAndRequestMint",
      "outputs": [],
      "stateMutability": "nonpayable",
      "type": "function"
    },
    {
      "inputs": [
        {
          "internalType": "uint256",
          "name": "_amount",
          "type": "uint256"
        }
      ],
      "name": "requestBurn",
      "outputs": [],
      "stateMutability": "nonpayable",
      "type": "function"
    },
    {
      "inputs": [
        {
          "internalType": "string",
          "name": "_gameID",
          "type": "string"
        },
        {
          "internalType": "uint256",
          "name": "_amount",
          "type": "uint256"
        }
      ],
      "name": "setAndRequestBurn",
      "outputs": [],
      "stateMutability": "nonpayable",
      "type": "function"
    },
    {
      "inputs": [
        {
          "internalType": "uint256",
          "name": "index",
          "type": "uint256"
        }
      ],
      "name": "read",
      "outputs": [
        {
          "internalType": "string",
          "name": "",
          "type": "string"
        },
        {
          "components": [
            {
              "internalType": "uint256",
              "name": "amount",
              "type": "uint256"
            },
            {
              "internalType": "address",
              "name": "owner",
              "type": "address"
            },
            {
              "internalType": "bool",
              "name": "mint",
              "type": "bool"
            },
            {
              "internalType": "bool",
              "name": "valid",
              "type": "bool"
            }
          ],
          "internalType": "struct RequestManager.Request",
          "name": "",
          "type": "tuple"
        }
      ],
      "stateMutability": "view",
      "type": "function"
    },
    {
      "inputs": [],
      "name": "readAll",
      "outputs": [
        {
          "internalType": "uint256",
          "name": "",
          "type": "uint256"
        },
        {
          "internalType": "string[]",
          "name": "",
          "type": "string[]"
        },
        {
          "components": [
            {
              "internalType": "uint256",
              "name": "amount",
              "type": "uint256"
            },
            {
              "internalType": "address",
              "name": "owner",
              "type": "address"
            },
            {
              "internalType": "bool",
              "name": "mint",
              "type": "bool"
            },
            {
              "internalType": "bool",
              "name": "valid",
              "type": "bool"
            }
          ],
          "internalType": "struct RequestManager.Request[]",
          "name": "",
          "type": "tuple[]"
        }
      ],
      "stateMutability": "view",
      "type": "function"
    },
    {
      "inputs": [
        {
          "internalType": "uint256",
          "name": "first",
          "type": "uint256"
        }
      ],
      "name": "readFrom",
      "outputs": [
        {
          "internalType": "uint256",
          "name": "",
          "type": "uint256"
        },
        {
          "internalType": "string[]",
          "name": "",
          "type": "string[]"
        },
        {
          "components": [
            {
              "internalType": "uint256",
              "name": "amount",
              "type": "uint256"
            },
            {
              "internalType": "address",
              "name": "owner",
              "type": "address"
            },
            {
              "internalType": "bool",
              "name": "mint",
              "type": "bool"
            },
            {
              "internalType": "bool",
              "name": "valid",
              "type": "bool"
            }
          ],
          "internalType": "struct RequestManager.Request[]",
          "name": "",
          "type": "tuple[]"
        }
      ],
      "stateMutability": "view",
      "type": "function"
    },
    {
      "inputs": [
        {
          "internalType": "uint256",
          "name": "newBookmark",
          "type": "uint256"
        }
      ],
      "name": "updateBookmark",
      "outputs": [],
      "stateMutability": "nonpayable",
      "type": "function"
    },
    {
      "inputs": [
        {
          "internalType": "uint256[]",
          "name": "mintRequestIDs",
          "type": "uint256[]"
        }
      ],
      "name": "accept",
      "outputs": [],
      "stateMutability": "nonpayable",
      "type": "function"
    },
    {
      "inputs": [
        {
          "internalType": "uint256[]",
          "name": "burnRequestIDs",
          "type": "uint256[]"
        }
      ],
      "name": "reject",
      "outputs": [],
      "stateMutability": "nonpayable",
      "type": "function"
    },
    {
      "inputs": [
        {
          "internalType": "uint256",
          "name": "index",
          "type": "uint256"
        }
      ],
      "name": "retreive",
      "outputs": [],
      "stateMutability": "nonpayable",
      "type": "function"
    }
  ],
  "bytecode": "0x608060405234801561001057600080fd5b50612d8b806100206000396000f3fe608060405234801561001057600080fd5b50600436106101005760003560e01c80635553afb611610097578063ed2e5a9711610066578063ed2e5a9714610273578063f09a4016146102a4578063fc0c546a146102c0578063fddc3d19146102de57610100565b80635553afb6146102015780637233f6f91461021d578063ae2799c114610239578063c6b052661461025557610100565b80633463aa9b116100d35780633463aa9b1461017757806341f654f7146101a957806346f3bec0146101c957806349733d04146101e557610100565b80630926c69c146101055780630d219c4c146101215780632f8d75e31461013f578063340722ae1461015b575b600080fd5b61011f600480360381019061011a9190611dce565b6102fc565b005b610129610679565b6040516101369190611e26565b60405180910390f35b61015960048036038101906101549190611e41565b61067f565b005b61017560048036038101906101709190611e41565b6109b5565b005b610191600480360381019061018c9190611e41565b610a93565b6040516101a093929190612127565b60405180910390f35b6101b1610e33565b6040516101c093929190612127565b60405180910390f35b6101e360048036038101906101de91906121c7565b610e4e565b005b6101ff60048036038101906101fa9190611e41565b6111cf565b005b61021b60048036038101906102169190611e41565b611476565b005b6102376004803603810190610232919061226a565b6116e8565b005b610253600480360381019061024e919061226a565b611700565b005b61025d611718565b60405161026a91906122d9565b60405180910390f35b61028d60048036038101906102889190611e41565b61173e565b60405161029b929190612393565b60405180910390f35b6102be60048036038101906102b991906123ef565b6118e1565b005b6102c8611a00565b6040516102d591906122d9565b60405180910390f35b6102e6611a26565b6040516102f3919061242f565b60405180910390f35b600460009054906101000a900473ffffffffffffffffffffffffffffffffffffffff1673ffffffffffffffffffffffffffffffffffffffff163373ffffffffffffffffffffffffffffffffffffffff161461038c576040517f08c379a00000000000000000000000000000000000000000000000000000000081526004016103839061249d565b60405180910390fd5b60008151905060008167ffffffffffffffff8111156103ae576103ad611c55565b5b6040519080825280602002602001820160405280156103dc5781602001602082028036833780820191505090505b50905060008267ffffffffffffffff8111156103fb576103fa611c55565b5b6040519080825280602002602001820160405280156104295781602001602082028036833780820191505090505b50905060005b838110156105aa576000600186838151811061044e5761044d6124bd565b5b602002602001015181548110610467576104666124bd565b5b906000526020600020906002020190508060010160149054906101000a900460ff161580156104a457508060010160159054906101000a900460ff165b6104e3576040517f08c379a00000000000000000000000000000000000000000000000000000000081526004016104da9061255e565b60405180910390fd5b8060010160009054906101000a900473ffffffffffffffffffffffffffffffffffffffff1684838151811061051b5761051a6124bd565b5b602002602001019073ffffffffffffffffffffffffffffffffffffffff16908173ffffffffffffffffffffffffffffffffffffffff1681525050806000015483838151811061056d5761056c6124bd565b5b60200260200101818152505060008160010160156101000a81548160ff0219169083151502179055505080806105a2906125ad565b91505061042f565b50600360009054906101000a900473ffffffffffffffffffffffffffffffffffffffff1673ffffffffffffffffffffffffffffffffffffffff1663ae0b61ba83836040518363ffffffff1660e01b8152600401610608929190612754565b600060405180830381600087803b15801561062257600080fd5b505af1158015610636573d6000803e3d6000fd5b505050507febb1edccc7b5ff3a6bc7166b268d8dfc0fb33e4e54e99f4d315765731674e27a848360405161066b92919061278b565b60405180910390a150505050565b60025481565b600081116106c2576040517f08c379a00000000000000000000000000000000000000000000000000000000081526004016106b99061280e565b60405180910390fd5b60008060003373ffffffffffffffffffffffffffffffffffffffff1673ffffffffffffffffffffffffffffffffffffffff168152602001908152602001600020905060008060003373ffffffffffffffffffffffffffffffffffffffff1673ffffffffffffffffffffffffffffffffffffffff168152602001908152602001600020805461074f9061285d565b90501415610792576040517f08c379a0000000000000000000000000000000000000000000000000000000008152600401610789906128db565b60405180910390fd5b600360009054906101000a900473ffffffffffffffffffffffffffffffffffffffff1673ffffffffffffffffffffffffffffffffffffffff16639dc29fac33846040518363ffffffff1660e01b81526004016107ef9291906128fb565b600060405180830381600087803b15801561080957600080fd5b505af115801561081d573d6000803e3d6000fd5b50505050610829611b46565b8281600001818152505033816020019073ffffffffffffffffffffffffffffffffffffffff16908173ffffffffffffffffffffffffffffffffffffffff16815250506000816040019015159081151581525050600181606001901515908115158152505060018190806001815401808255809150506001900390600052602060002090600202016000909190919091506000820151816000015560208201518160010160006101000a81548173ffffffffffffffffffffffffffffffffffffffff021916908373ffffffffffffffffffffffffffffffffffffffff16021790555060408201518160010160146101000a81548160ff02191690831515021790555060608201518160010160156101000a81548160ff02191690831515021790555050503373ffffffffffffffffffffffffffffffffffffffff16600180805490506109749190612924565b7fa0ff3e22d4a07b98719ec3f07c82546d61e149eda311d7c74f50042ce504c866848660006040516109a8939291906129fc565b60405180910390a3505050565b600460009054906101000a900473ffffffffffffffffffffffffffffffffffffffff1673ffffffffffffffffffffffffffffffffffffffff163373ffffffffffffffffffffffffffffffffffffffff1614610a45576040517f08c379a0000000000000000000000000000000000000000000000000000000008152600401610a3c9061249d565b60405180910390fd5b8060025410610a89576040517f08c379a0000000000000000000000000000000000000000000000000000000008152600401610a8090612a86565b60405180910390fd5b8060028190555050565b6000606080600460009054906101000a900473ffffffffffffffffffffffffffffffffffffffff1673ffffffffffffffffffffffffffffffffffffffff163373ffffffffffffffffffffffffffffffffffffffff1614610b28576040517f08c379a0000000000000000000000000000000000000000000000000000000008152600401610b1f9061249d565b60405180910390fd5b6000600180549050905060008582610b409190612924565b905060008111610b85576040517f08c379a0000000000000000000000000000000000000000000000000000000008152600401610b7c90612af2565b60405180910390fd5b60008167ffffffffffffffff811115610ba157610ba0611c55565b5b604051908082528060200260200182016040528015610bd457816020015b6060815260200190600190039081610bbf5790505b50905060008267ffffffffffffffff811115610bf357610bf2611c55565b5b604051908082528060200260200182016040528015610c2c57816020015b610c19611b46565b815260200190600190039081610c115790505b50905060005b83811015610e1e576000803373ffffffffffffffffffffffffffffffffffffffff1673ffffffffffffffffffffffffffffffffffffffff1681526020019081526020016000208054610c839061285d565b80601f0160208091040260200160405190810160405280929190818152602001828054610caf9061285d565b8015610cfc5780601f10610cd157610100808354040283529160200191610cfc565b820191906000526020600020905b815481529060010190602001808311610cdf57829003601f168201915b5050505050838281518110610d1457610d136124bd565b5b602002602001018190525060018982610d2d9190612b12565b81548110610d3e57610d3d6124bd565b5b9060005260206000209060020201604051806080016040529081600082015481526020016001820160009054906101000a900473ffffffffffffffffffffffffffffffffffffffff1673ffffffffffffffffffffffffffffffffffffffff1673ffffffffffffffffffffffffffffffffffffffff1681526020016001820160149054906101000a900460ff161515151581526020016001820160159054906101000a900460ff161515151581525050828281518110610e0057610dff6124bd565b5b60200260200101819052508080610e16906125ad565b915050610c32565b50878282965096509650505050509193909250565b6000606080610e43600254610a93565b925092509250909192565b600460009054906101000a900473ffffffffffffffffffffffffffffffffffffffff1673ffffffffffffffffffffffffffffffffffffffff163373ffffffffffffffffffffffffffffffffffffffff1614610ede576040517f08c379a0000000000000000000000000000000000000000000000000000000008152600401610ed59061249d565b60405180910390fd5b600082829050905060008167ffffffffffffffff811115610f0257610f01611c55565b5b604051908082528060200260200182016040528015610f305781602001602082028036833780820191505090505b50905060008267ffffffffffffffff811115610f4f57610f4e611c55565b5b604051908082528060200260200182016040528015610f7d5781602001602082028036833780820191505090505b50905060005b838110156110fd5760006001878784818110610fa257610fa16124bd565b5b9050602002013581548110610fba57610fb96124bd565b5b906000526020600020906002020190508060010160149054906101000a900460ff168015610ff757508060010160159054906101000a900460ff16155b611036576040517f08c379a000000000000000000000000000000000000000000000000000000000815260040161102d9061255e565b60405180910390fd5b8060010160009054906101000a900473ffffffffffffffffffffffffffffffffffffffff1684838151811061106e5761106d6124bd565b5b602002602001019073ffffffffffffffffffffffffffffffffffffffff16908173ffffffffffffffffffffffffffffffffffffffff168152505080600001548383815181106110c0576110bf6124bd565b5b60200260200101818152505060018160010160156101000a81548160ff0219169083151502179055505080806110f5906125ad565b915050610f83565b50600360009054906101000a900473ffffffffffffffffffffffffffffffffffffffff1673ffffffffffffffffffffffffffffffffffffffff1663ae0b61ba83836040518363ffffffff1660e01b815260040161115b929190612754565b600060405180830381600087803b15801561117557600080fd5b505af1158015611189573d6000803e3d6000fd5b505050507fa2c32d3001838e812f0c1466d9074aa338049b8f602dd3015254c4d2696454ff8585846040516111c093929190612bd8565b60405180910390a15050505050565b60008111611212576040517f08c379a00000000000000000000000000000000000000000000000000000000081526004016112099061280e565b60405180910390fd5b60008060003373ffffffffffffffffffffffffffffffffffffffff1673ffffffffffffffffffffffffffffffffffffffff168152602001908152602001600020905060008060003373ffffffffffffffffffffffffffffffffffffffff1673ffffffffffffffffffffffffffffffffffffffff168152602001908152602001600020805461129f9061285d565b905014156112e2576040517f08c379a00000000000000000000000000000000000000000000000000000000081526004016112d9906128db565b60405180910390fd5b6112ea611b46565b8281600001818152505033816020019073ffffffffffffffffffffffffffffffffffffffff16908173ffffffffffffffffffffffffffffffffffffffff16815250506001816040019015159081151581525050600081606001901515908115158152505060018190806001815401808255809150506001900390600052602060002090600202016000909190919091506000820151816000015560208201518160010160006101000a81548173ffffffffffffffffffffffffffffffffffffffff021916908373ffffffffffffffffffffffffffffffffffffffff16021790555060408201518160010160146101000a81548160ff02191690831515021790555060608201518160010160156101000a81548160ff02191690831515021790555050503373ffffffffffffffffffffffffffffffffffffffff16600180805490506114359190612924565b7fa0ff3e22d4a07b98719ec3f07c82546d61e149eda311d7c74f50042ce504c86684866001604051611469939291906129fc565b60405180910390a3505050565b6002548110156114bb576040517f08c379a00000000000000000000000000000000000000000000000000000000081526004016114b290612c5d565b60405180910390fd5b6000600182815481106114d1576114d06124bd565b5b906000526020600020906002020190508060010160009054906101000a900473ffffffffffffffffffffffffffffffffffffffff1673ffffffffffffffffffffffffffffffffffffffff163373ffffffffffffffffffffffffffffffffffffffff1614611573576040517f08c379a000000000000000000000000000000000000000000000000000000000815260040161156a9061249d565b60405180910390fd5b8060010160149054906101000a900460ff161580156115a057508060010160159054906101000a900460ff165b6115df576040517f08c379a00000000000000000000000000000000000000000000000000000000081526004016115d690612cc9565b60405180910390fd5b60008160010160156101000a81548160ff021916908315150217905550600081600001549050600360009054906101000a900473ffffffffffffffffffffffffffffffffffffffff1673ffffffffffffffffffffffffffffffffffffffff166340c10f1933836040518363ffffffff1660e01b81526004016116629291906128fb565b600060405180830381600087803b15801561167c57600080fd5b505af1158015611690573d6000803e3d6000fd5b505050503373ffffffffffffffffffffffffffffffffffffffff16837fb72782984362f9b5d56b9d898204f1f9f8e37a7b9b0d153cad0b3c40cc88dfaa836040516116db9190611e26565b60405180910390a3505050565b6116f28383611af4565b6116fb8161067f565b505050565b61170a8383611af4565b611713816111cf565b505050565b600460009054906101000a900473ffffffffffffffffffffffffffffffffffffffff1681565b6060611748611b46565b6000803373ffffffffffffffffffffffffffffffffffffffff1673ffffffffffffffffffffffffffffffffffffffff1681526020019081526020016000206001848154811061179a576117996124bd565b5b90600052602060002090600202018180546117b49061285d565b80601f01602080910402602001604051908101604052809291908181526020018280546117e09061285d565b801561182d5780601f106118025761010080835404028352916020019161182d565b820191906000526020600020905b81548152906001019060200180831161181057829003601f168201915b5050505050915080604051806080016040529081600082015481526020016001820160009054906101000a900473ffffffffffffffffffffffffffffffffffffffff1673ffffffffffffffffffffffffffffffffffffffff1673ffffffffffffffffffffffffffffffffffffffff1681526020016001820160149054906101000a900460ff161515151581526020016001820160159054906101000a900460ff161515151581525050905091509150915091565b600073ffffffffffffffffffffffffffffffffffffffff16600360009054906101000a900473ffffffffffffffffffffffffffffffffffffffff1673ffffffffffffffffffffffffffffffffffffffff1614611972576040517f08c379a000000000000000000000000000000000000000000000000000000000815260040161196990612d35565b60405180910390fd5b81600360006101000a81548173ffffffffffffffffffffffffffffffffffffffff021916908373ffffffffffffffffffffffffffffffffffffffff16021790555080600460006101000a81548173ffffffffffffffffffffffffffffffffffffffff021916908373ffffffffffffffffffffffffffffffffffffffff16021790555060006002819055505050565b600360009054906101000a900473ffffffffffffffffffffffffffffffffffffffff1681565b60606000803373ffffffffffffffffffffffffffffffffffffffff1673ffffffffffffffffffffffffffffffffffffffff1681526020019081526020016000208054611a719061285d565b80601f0160208091040260200160405190810160405280929190818152602001828054611a9d9061285d565b8015611aea5780601f10611abf57610100808354040283529160200191611aea565b820191906000526020600020905b815481529060010190602001808311611acd57829003601f168201915b5050505050905090565b81816000803373ffffffffffffffffffffffffffffffffffffffff1673ffffffffffffffffffffffffffffffffffffffff1681526020019081526020016000209190611b41929190611b88565b505050565b604051806080016040528060008152602001600073ffffffffffffffffffffffffffffffffffffffff1681526020016000151581526020016000151581525090565b828054611b949061285d565b90600052602060002090601f016020900481019282611bb65760008555611bfd565b82601f10611bcf57803560ff1916838001178555611bfd565b82800160010185558215611bfd579182015b82811115611bfc578235825591602001919060010190611be1565b5b509050611c0a9190611c0e565b5090565b5b80821115611c27576000816000905550600101611c0f565b5090565b6000604051905090565b600080fd5b600080fd5b600080fd5b6000601f19601f8301169050919050565b7f4e487b7100000000000000000000000000000000000000000000000000000000600052604160045260246000fd5b611c8d82611c44565b810181811067ffffffffffffffff82111715611cac57611cab611c55565b5b80604052505050565b6000611cbf611c2b565b9050611ccb8282611c84565b919050565b600067ffffffffffffffff821115611ceb57611cea611c55565b5b602082029050602081019050919050565b600080fd5b6000819050919050565b611d1481611d01565b8114611d1f57600080fd5b50565b600081359050611d3181611d0b565b92915050565b6000611d4a611d4584611cd0565b611cb5565b90508083825260208201905060208402830185811115611d6d57611d6c611cfc565b5b835b81811015611d965780611d828882611d22565b845260208401935050602081019050611d6f565b5050509392505050565b600082601f830112611db557611db4611c3f565b5b8135611dc5848260208601611d37565b91505092915050565b600060208284031215611de457611de3611c35565b5b600082013567ffffffffffffffff811115611e0257611e01611c3a565b5b611e0e84828501611da0565b91505092915050565b611e2081611d01565b82525050565b6000602082019050611e3b6000830184611e17565b92915050565b600060208284031215611e5757611e56611c35565b5b6000611e6584828501611d22565b91505092915050565b600081519050919050565b600082825260208201905092915050565b6000819050602082019050919050565b600081519050919050565b600082825260208201905092915050565b60005b83811015611ed4578082015181840152602081019050611eb9565b83811115611ee3576000848401525b50505050565b6000611ef482611e9a565b611efe8185611ea5565b9350611f0e818560208601611eb6565b611f1781611c44565b840191505092915050565b6000611f2e8383611ee9565b905092915050565b6000602082019050919050565b6000611f4e82611e6e565b611f588185611e79565b935083602082028501611f6a85611e8a565b8060005b85811015611fa65784840389528151611f878582611f22565b9450611f9283611f36565b925060208a01995050600181019050611f6e565b50829750879550505050505092915050565b600081519050919050565b600082825260208201905092915050565b6000819050602082019050919050565b611fed81611d01565b82525050565b600073ffffffffffffffffffffffffffffffffffffffff82169050919050565b600061201e82611ff3565b9050919050565b61202e81612013565b82525050565b60008115159050919050565b61204981612034565b82525050565b6080820160008201516120656000850182611fe4565b5060208201516120786020850182612025565b50604082015161208b6040850182612040565b50606082015161209e6060850182612040565b50505050565b60006120b0838361204f565b60808301905092915050565b6000602082019050919050565b60006120d482611fb8565b6120de8185611fc3565b93506120e983611fd4565b8060005b8381101561211a57815161210188826120a4565b975061210c836120bc565b9250506001810190506120ed565b5085935050505092915050565b600060608201905061213c6000830186611e17565b818103602083015261214e8185611f43565b9050818103604083015261216281846120c9565b9050949350505050565b600080fd5b60008083601f84011261218757612186611c3f565b5b8235905067ffffffffffffffff8111156121a4576121a361216c565b5b6020830191508360208202830111156121c0576121bf611cfc565b5b9250929050565b600080602083850312156121de576121dd611c35565b5b600083013567ffffffffffffffff8111156121fc576121fb611c3a565b5b61220885828601612171565b92509250509250929050565b60008083601f84011261222a57612229611c3f565b5b8235905067ffffffffffffffff8111156122475761224661216c565b5b60208301915083600182028301111561226357612262611cfc565b5b9250929050565b60008060006040848603121561228357612282611c35565b5b600084013567ffffffffffffffff8111156122a1576122a0611c3a565b5b6122ad86828701612214565b935093505060206122c086828701611d22565b9150509250925092565b6122d381612013565b82525050565b60006020820190506122ee60008301846122ca565b92915050565b600082825260208201905092915050565b600061231082611e9a565b61231a81856122f4565b935061232a818560208601611eb6565b61233381611c44565b840191505092915050565b6080820160008201516123546000850182611fe4565b5060208201516123676020850182612025565b50604082015161237a6040850182612040565b50606082015161238d6060850182612040565b50505050565b600060a08201905081810360008301526123ad8185612305565b90506123bc602083018461233e565b9392505050565b6123cc81612013565b81146123d757600080fd5b50565b6000813590506123e9816123c3565b92915050565b6000806040838503121561240657612405611c35565b5b6000612414858286016123da565b9250506020612425858286016123da565b9150509250929050565b600060208201905081810360008301526124498184612305565b905092915050565b7f4e6f207065726d697373696f6e00000000000000000000000000000000000000600082015250565b6000612487600d836122f4565b915061249282612451565b602082019050919050565b600060208201905081810360008301526124b68161247a565b9050919050565b7f4e487b7100000000000000000000000000000000000000000000000000000000600052603260045260246000fd5b7f52657175657374207769746820696e76616c696420737461746520657869737460008201527f7300000000000000000000000000000000000000000000000000000000000000602082015250565b60006125486021836122f4565b9150612553826124ec565b604082019050919050565b600060208201905081810360008301526125778161253b565b9050919050565b7f4e487b7100000000000000000000000000000000000000000000000000000000600052601160045260246000fd5b60006125b882611d01565b91507fffffffffffffffffffffffffffffffffffffffffffffffffffffffffffffffff8214156125eb576125ea61257e565b5b600182019050919050565b600081519050919050565b600082825260208201905092915050565b6000819050602082019050919050565b600061262e8383612025565b60208301905092915050565b6000602082019050919050565b6000612652826125f6565b61265c8185612601565b935061266783612612565b8060005b8381101561269857815161267f8882612622565b975061268a8361263a565b92505060018101905061266b565b5085935050505092915050565b600081519050919050565b600082825260208201905092915050565b6000819050602082019050919050565b60006126dd8383611fe4565b60208301905092915050565b6000602082019050919050565b6000612701826126a5565b61270b81856126b0565b9350612716836126c1565b8060005b8381101561274757815161272e88826126d1565b9750612739836126e9565b92505060018101905061271a565b5085935050505092915050565b6000604082019050818103600083015261276e8185612647565b9050818103602083015261278281846126f6565b90509392505050565b600060408201905081810360008301526127a581856126f6565b905081810360208301526127b98184612647565b90509392505050565b7f5265717565737420616d6f756e742073686f756c64206e6f7420626520300000600082015250565b60006127f8601e836122f4565b9150612803826127c2565b602082019050919050565b60006020820190508181036000830152612827816127eb565b9050919050565b7f4e487b7100000000000000000000000000000000000000000000000000000000600052602260045260246000fd5b6000600282049050600182168061287557607f821691505b602082108114156128895761288861282e565b5b50919050565b7f5365742067616d65494420666f72207468697320616464726573730000000000600082015250565b60006128c5601b836122f4565b91506128d08261288f565b602082019050919050565b600060208201905081810360008301526128f4816128b8565b9050919050565b600060408201905061291060008301856122ca565b61291d6020830184611e17565b9392505050565b600061292f82611d01565b915061293a83611d01565b92508282101561294d5761294c61257e565b5b828203905092915050565b60008190508160005260206000209050919050565b6000815461297a8161285d565b61298481866122f4565b9450600182166000811461299f57600181146129b1576129e4565b60ff19831686526020860193506129e4565b6129ba85612958565b60005b838110156129dc578154818901526001820191506020810190506129bd565b808801955050505b50505092915050565b6129f681612034565b82525050565b60006060820190508181036000830152612a16818661296d565b9050612a256020830185611e17565b612a3260408301846129ed565b949350505050565b7f426f6f6b6d61726b2063616e6e6f742062652064656372656173656400000000600082015250565b6000612a70601c836122f4565b9150612a7b82612a3a565b602082019050919050565b60006020820190508181036000830152612a9f81612a63565b9050919050565b7f4e6f7468696e6720746f20726561640000000000000000000000000000000000600082015250565b6000612adc600f836122f4565b9150612ae782612aa6565b602082019050919050565b60006020820190508181036000830152612b0b81612acf565b9050919050565b6000612b1d82611d01565b9150612b2883611d01565b9250827fffffffffffffffffffffffffffffffffffffffffffffffffffffffffffffffff03821115612b5d57612b5c61257e565b5b828201905092915050565b600080fd5b82818337600083830152505050565b6000612b8883856126b0565b93507f07ffffffffffffffffffffffffffffffffffffffffffffffffffffffffffffff831115612bbb57612bba612b68565b5b602083029250612bcc838584612b6d565b82840190509392505050565b60006040820190508181036000830152612bf3818587612b7c565b90508181036020830152612c078184612647565b9050949350505050565b7f5265717565737420697320616c72656164792072656164000000000000000000600082015250565b6000612c476017836122f4565b9150612c5282612c11565b602082019050919050565b60006020820190508181036000830152612c7681612c3a565b9050919050565b7f496e76616c696420726571756573742073746174650000000000000000000000600082015250565b6000612cb36015836122f4565b9150612cbe82612c7d565b602082019050919050565b60006020820190508181036000830152612ce281612ca6565b9050919050565b7f416c726561647920696e697469616c697a656400000000000000000000000000600082015250565b6000612d1f6013836122f4565b9150612d2a82612ce9565b602082019050919050565b60006020820190508181036000830152612d4e81612d12565b905091905056fea264697066735822122033fec2a4005482ed5c5334ba0fa06500ef96832b915f397da9ff9b47a7dc923364736f6c63430008090033",
  "immutableReferences": {},
  "source": "// SPDX-License-Identifier: MIT\npragma solidity ^0.8.0;\n\nimport './ERC20Example.sol';\n\ncontract RequestManager {\n    struct Request {\n        uint256 amount;\n        address owner;\n        bool mint;\n        bool valid;\n    }\n\n    // mapping user address => user's game ID\n    mapping(address => string) private gameIDs;\n\n    Request[] private requests;\n    uint256 public bookmark; // next index of request array to continue reading\n\n    address public token;\n    address public gameManager;\n\n    // request events\n    event RequestCreated(uint256 indexed requestIndex, address indexed owner, string gameID, uint256 amount, bool mint);\n    event MintRequestAccepted(uint256[] requestIndices, address[] owners);\n    event BurnRequestRejected(uint256[] requestIndices, address[] owners);\n    event BurnRequestRetrieved(uint256 indexed requestIndex, address indexed owner, uint256 amount);\n\n    function init(address _token, address _gameManager) public virtual {\n        require(token == address(0), \"Already initialized\");\n        token = _token;\n        gameManager = _gameManager;\n        bookmark = 0;\n    }\n\n    function setGameID(string calldata _gameID) internal {\n        gameIDs[msg.sender] = _gameID;\n    }\n\n    function getGameID() external view returns (string memory) {\n        return gameIDs[msg.sender];\n    }\n\n    // make request for exchanging from game currency to corresponding token\n    function requestMint(uint256 _amount) public {\n        require(_amount > 0, \"Request amount should not be 0\");\n        string storage gameID = gameIDs[msg.sender];\n        require(bytes(gameIDs[msg.sender]).length != 0, \"Set gameID for this address\");\n\n        Request memory request;\n        request.amount = _amount;\n        request.owner = msg.sender;\n        request.mint = true;\n        request.valid = false;\n\n        requests.push(request);\n\n        emit RequestCreated(requests.length - 1, msg.sender, gameID, _amount, true);\n    }\n    // set & request in 1 tx\n    function setAndRequestMint(string calldata _gameID, uint256 _amount) public {\n        setGameID(_gameID);\n        requestMint(_amount);\n    }\n\n    // make request for exchanging from token to coreesponding game currency\n    function requestBurn(uint256 _amount) public {\n        require(_amount > 0, \"Request amount should not be 0\");\n        string storage gameID = gameIDs[msg.sender];\n        require(bytes(gameIDs[msg.sender]).length != 0, \"Set gameID for this address\");\n\n        ERC20Example(token).burn(msg.sender, _amount);\n\n        Request memory request;\n        request.amount = _amount;\n        request.owner = msg.sender;\n        request.mint = false;\n        request.valid = true;\n\n        requests.push(request);\n\n        emit RequestCreated(requests.length - 1, msg.sender, gameID, _amount, false);\n    }\n    // set & request in 1 tx\n    function setAndRequestBurn(string calldata _gameID, uint256 _amount) public {\n        setGameID(_gameID);\n        requestBurn(_amount);\n    }\n\n    // fetch info of request of given index\n    function read(uint256 index) public view returns (string memory, Request memory) {\n        return (gameIDs[msg.sender], requests[index]);\n    }\n\n    // fetch info of all unread requests\n    function readAll() public view returns (uint256, string[] memory, Request[] memory) {\n        return readFrom(bookmark);\n    }\n\n    // fetch unread info from given first index\n    function readFrom(uint256 first) public view returns (uint256, string[] memory, Request[] memory) {\n        require(msg.sender == gameManager, \"No permission\");\n        uint256 len = requests.length;\n        uint256 cnt = len - first;\n        require(cnt > 0, \"Nothing to read\");\n\n        string[] memory gameIDs_ = new string[](cnt);\n        Request[] memory requests_ = new Request[](cnt);\n\n        for (uint256 i = 0; i < cnt; i++) {\n            gameIDs_[i] = gameIDs[msg.sender];\n            requests_[i] = requests[i + first];\n        }\n\n        return (first, gameIDs_, requests_);\n    }\n\n    // must update after reading infos of requests until new bookmark\n    function updateBookmark(uint256 newBookmark) public {\n        require(msg.sender == gameManager, \"No permission\");\n        require(bookmark < newBookmark, \"Bookmark cannot be decreased\");\n        bookmark = newBookmark;\n    }\n\n    // accept valid mint requests\n    // param mintReqeustIDs contains indices of requests array to accept\n    function accept(uint256[] calldata mintRequestIDs) public {\n        require(msg.sender == gameManager, \"No permission\");\n\n        uint256 cnt = mintRequestIDs.length;\n        address[] memory receivers = new address[](cnt);\n        uint256[] memory amounts = new uint256[](cnt);\n\n        for(uint256 i = 0; i < cnt; i++) {\n            Request storage request = requests[mintRequestIDs[i]];\n            require(request.mint && !request.valid, \"Request with invalid state exists\");\n\n            receivers[i] = request.owner;\n            amounts[i] = request.amount;\n\n            request.valid = true;\n        }\n\n        ERC20Example(token).mintAll(receivers, amounts);\n\n        emit MintRequestAccepted(mintRequestIDs, receivers);\n    }\n\n    // reject invalid burn requests\n    // param burnRequestIDs contains indices of requests array to reject\n    function reject(uint256[] memory burnRequestIDs) public {\n        require(msg.sender == gameManager, \"No permission\");\n\n        uint256 cnt = burnRequestIDs.length;\n        address[] memory receivers = new address[](cnt);\n        uint256[] memory amounts = new uint256[](cnt);\n\n        for(uint i = 0; i < cnt; i++) {\n            Request storage request = requests[burnRequestIDs[i]];\n            require(!request.mint && request.valid, \"Request with invalid state exists\");\n\n            receivers[i] = request.owner;\n            amounts[i] = request.amount;\n\n            request.valid = false;\n        }\n\n        ERC20Example(token).mintAll(receivers, amounts);\n\n        emit BurnRequestRejected(burnRequestIDs, receivers);\n    }\n\n    // retrieve unread burn request\n    function retreive(uint256 index) public {\n        require(index >= bookmark, \"Request is already read\");\n        Request storage request = requests[index];\n        require(msg.sender == request.owner, \"No permission\");\n        require(!request.mint && request.valid, \"Invalid request state\");\n\n        request.valid = false;\n        uint256 amount = request.amount;\n        ERC20Example(token).mint(msg.sender, amount);\n\n        emit BurnRequestRetrieved(index, msg.sender, amount);\n    }\n\n}",
  "sourcePath": "/Users/bagdongho/Desktop/web3-tutorials/WEB3-TUTORIAL/truffle/contracts/Request.sol",
  "compiler": {
    "name": "solc",
    "version": "0.8.9+commit.e5eed63a.Emscripten.clang"
  },
  "schemaVersion": "3.4.7",
  "updatedAt": "2022-06-13T09:50:45.520Z",
  "devdoc": {
    "kind": "dev",
    "methods": {},
    "version": 1
  },
  "userdoc": {
    "kind": "user",
    "methods": {},
    "version": 1
  }
}